:100000000C942A000C9447000C9447000C94470071
:100010000C9447000C9447000C9447000C94470044
:100020000C9447000C9447000C9447000C94470034
:100030000C9447000C9447000C9447000C94470024
:100040000C9447000C9447000C9447000C94470014
:100050000C94470011241FBECFE5D4E0DEBFCDBF16
:1000600010E0A0E6B0E0EAEDFCE002C005900D92E1
:10007000AE36B107D9F710E0AEE6B0E001C01D9290
:10008000AB37B107E1F70E9488030C946B060C9420
:1000900000008FEF8BBB1ABA88BB17BA15BA84BBA6
:1000A00082BB11BA08958C9A8D9A1EBC1DBC1CBCD3
:1000B0001BBC1ABC19BC18BC81E087BD8FE886BD8B
:1000C00082EA8FBD89E18EBD089589E685BD0895D8
:1000D00089E683BF08951ABA16B880E687B987E81B
:1000E00086B980E888B9089515B88770806687B9A1
:1000F000369A3699FECF85B10895AC0130E060E9BB
:1001000071E00CC0FB013197F1F70197D9F72F5F30
:10011000243019F084EC99E0F5CF3F5F832F90E015
:100120008417950714F420E0F5CF0895AF92BF929D
:10013000CF92DF92EF92FF920F931F93AA2797FD22
:10014000A095BA2FBC01CD010E9418055B016C017E
:1001500020E030E04AE755E40E94CC057B018C01A9
:1001600020E030E040E85FE30E947E0488231CF436
:1001700061E070E024C0C801B70120E03FEF4FE725
:1001800057E40E94C8051816B4F4C601B50120E072
:1001900030E040E251E40E94CC050E94EA0480E98C
:1001A00091E005C0FC013197F1F761507040611595
:1001B0007105C1F707C0C801B7010E94EA04CB016D
:1001C0000197F1F71F910F91FF90EF90DF90CF9083
:1001D000BF90AF900895AF92BF92CF92DF92EF920F
:1001E000FF920F931F93AA2797FDA095BA2FBC01EA
:1001F000CD010E9418055B016C012BEA3AEA4AEA3C
:1002000050E40E94CC057B018C0120E030E040E806
:100210005FE30E947E04882314F461E054C0C801A7
:10022000B70120E030E04FE753E40E94C8051816FC
:100230000CF045C0C601B50120E030E04AE754E4C7
:100240000E9482045B016C0120E030E04AE755E443
:100250000E94CC057B018C0120E030E040E85FE3A8
:100260000E947E0488231CF461E070E024C0C80171
:10027000B70120E03FEF4FE757E40E94C80518168A
:10028000B4F4C601B50120E030E040E251E40E9440
:10029000CC050E94EA0480E991E005C0FC01319799
:1002A000F1F76150704061157105C1F70EC0C801CA
:1002B000B7010E94EA04CB010197F1F706C0C8011B
:1002C000B7010E94EA046A95F1F71F910F91FF9020
:1002D000EF90DF90CF90BF90AF9008950F931F9352
:1002E000CF93DF9310926E00C0E0D0E001E010E009
:1002F0008C2F0E947400843660F498010C2E02C08A
:10030000220F331F0A94E2F780916E00822B8093B4
:100310006E002196C430D10559F7DF91CF911F911E
:100320000F91089580E00E94740080936F0081E037
:100330000E9474008093700082E00E947400809399
:10034000710083E00E94740080937200089580E041
:100350000E9474008093770081E00E947400809373
:10036000780082E00E9474008093790083E00E940C
:10037000740080937A0008951F93CF93DF93C0E0B9
:10038000D0E01FEF15BB84E690E00E94960015BAFE
:1003900084E690E00E9496002196C530D10591F741
:1003A000DF91CF911F9108959BBD8ABD089599BD9E
:1003B00088BD089583BD08958CBF089587B3807F5D
:1003C00087BBC69AC59882E08A95F1F722E035E0AE
:1003D000C79A822F8A95F1F786B38295807F922FF4
:1003E0009A95F1F7C798932F9A95F1F7C79A922F9C
:1003F0009A95F1F796B3922F9A95F1F7C798932FA4
:100400009A95F1F787FDE4CFC69887B38F6087BBD5
:100410000895282F662311F4C59801C0C59A82E07B
:100420008A95F1F7C79A88B3922F92959F70807F33
:10043000982B98BB95E0892F8A95F1F7C798892F5B
:100440008A95F1F7C79A88B32F70807F822B88BB7B
:10045000892F8A95F1F7C7989A95F1F70E94DE01E6
:1004600008951F93182F8CE291E020E931E0F90103
:100470003197F1F70197D9F787B38F6087BBBF9AA0
:10048000BD9ABE9A88B3807F88BBC798C698C59826
:1004900081E08A95F1F7C79AC19A85E0982F9A95DD
:1004A000F1F7C7988A95F1F70E94DE01812F8C60E1
:1004B00060E00E94090288E260E00E9409021F9148
:1004C0000895CF93DF93EC0104C061E00E9409021C
:1004D000219688818823C9F7DF91CF910895EF9203
:1004E000FF920F931F93DF93CF9300D000D00F9212
:1004F000CDB7DEB79C018B01FE01319685E0DF01AF
:100500001D928A95E9F7FE0135960DC0C9016AE092
:1005100070E00E942F068083C9016AE070E00E94AB
:100520002F069B0131972115310581F7BFEF0F3F52
:100530001B0779F420E030E0AE014F5F5F4F02C04F
:100540002F5F3F4FFA01E20FF31F80818823C1F331
:1005500004C025E030E0201B310B7E010894E11C33
:10056000F11CE20EF31E890109C0F70181917F01A0
:10057000805D61E00E9409020F5F1F4F0530110589
:10058000A4F30F900F900F900F900F90CF91DF91E9
:100590001F910F91FF90EF900895883230F4611110
:1005A0008064806860E00E94090208950F931F93A1
:1005B0008A010E94CD02C8010E9461021F910F9121
:1005C0000895EF92FF920F931F938A0179010E9481
:1005D000CD02C801B7010E946F021F910F91FF90D9
:1005E000EF9008951AB81BB887E080BD87E689B9F7
:1005F00010BC88E98AB908955D9BFECF8CB9089537
:10060000FC0104C05D9BFECF8CB9319680818823AC
:10061000C9F708955D9BFECF8AE08CB95D9BFECF44
:100620008DE08CB908955F9BFECF8CB108958FEF5C
:1006300084BB0895AC9AAD98AE98AF980895AC98E5
:10064000AD9AAE98AF980895AC98AD98AE9AAF9821
:100650000895AC98AD98AE9AAF980895AC9AAD98BD
:10066000AE98AF980895AC98AD98AE98AF9A0895AB
:10067000AC9AAD98AE9AAF980895AC98AD9AAE98F2
:10068000AF9A0895AC98AD9AAE9AAF980895AC9A87
:10069000AD98AE98AF9A0895AC98AD98AE98AF98D3
:1006A0000895AC9AAD9AAE9AAF9A089582B38F60CE
:1006B00082BB81B3807F81BB089520B330E0209559
:1006C000309521703070C901089520B330E036951F
:1006D00027952095309521703070C901089520B379
:1006E00030E03695279536952795209530952170E1
:1006F0003070C901089520B330E043E03695279566
:100700004A95E1F72095309521703070C901089520
:100710008F929F92AF92BF92CF92DF92EF92FF9211
:100720000F931F93CF93DF930E94530082E00E94A8
:10073000310281E060E00E94090280EB81BB8FEF13
:1007400082BB84BB85BB87BB82E090E060E070E049
:1007500040E650E00E94D60280B390B38099FECF6D
:10076000082F10E0169507951695079501701070E3
:10077000C92FD0E073E0D695C7957A95E1F7C1709F
:10078000D07081E060E00E940902AC9AAD98AF9A07
:10079000AE9880EF90E09BBD8ABD99BD88BD88244E
:1007A0009924AA24BB24CC24DD24EE24FF24829B9C
:1007B00003C061E0E62EF12C829902C0EE24FF24F2
:1007C000839B03C051E0A52EB12C839902C0AA24BB
:1007D000BB24CA15DB0569F00894811C911C85E0D7
:1007E00090E060E070E0A40123E030E00E94E102CC
:1007F000E50180E38816910451F4AC9AAD9A82E049
:1008000090E061E070E049E650E00E94D6020E15EB
:100810001F0569F00894C11CD11C8CE090E060E0D9
:1008200070E0A60123E030E00E94E102870180E34E
:10083000C816D10409F0BBCFAE9AAF9A89E090E018
:1008400061E070E049E650E00E94D602B0CF80E05F
:1008500090E00E9456068093730081E090E00E9431
:1008600056068093740082E090E00E9456068093C2
:10087000750083E090E00E9456068093760008950C
:10088000CF93DF932091770080916F0090E0820FEB
:10089000911D9595879580937300209178008091A4
:1008A000700090E0820F911D95958795809374005C
:1008B000209179008091710090E0820F911D9595B3
:1008C00087958093750020917A008091720090E066
:1008D000820F911D9595879580937600C0E0D0E0BA
:1008E000FE01ED58FF4FCE0160810E945E06219609
:1008F000C430D105A9F7DF91CF910895D4D008F481
:1009000081E008950CD00AC102D140F0F9D030F056
:1009100021F45F3F19F0EBC0511134C1EEC00FD18B
:1009200098F39923C9F35523B1F3951B550BBB27B6
:10093000AA2762177307840738F09F5F5F4F220F63
:10094000331F441FAA1FA9F333D00E2E3AF0E0E85C
:1009500030D091505040E695001CCAF729D0FE2FA8
:1009600027D0660F771F881FBB1F2617370748073A
:10097000AB07B0E809F0BB0B802DBF01FF279358F0
:100980005F4F2AF09E3F510568F0B1C0FBC05F3F4A
:10099000ECF3983EDCF3869577956795B795F795D8
:1009A0009F5FC9F7880F911D9695879597F90895D0
:1009B000E1E0660F771F881FBB1F6217730784076C
:1009C000BA0720F0621B730B840BBA0BEE1F88F77B
:1009D000E0950895BCD088F09F5790F0B92F9927E3
:1009E000B751A0F0D1F0660F771F881F991F1AF03A
:1009F000BA95C9F712C0B13081F0C3D0B1E0089503
:100A0000C0C0672F782F8827B85F39F0B93FCCF383
:100A1000869577956795B395D9F73EF4909580952F
:100A2000709561957F4F8F4F9F4F0895E89409C04F
:100A300097FB3EF490958095709561957F4F8F4F11
:100A40009F4F9923A9F0F92F96E9BB279395F69527
:100A5000879577956795B795F111F8CFFAF4BB0FA5
:100A600011F460FF1BC06F5F7F4F8F4F9F4F16C009
:100A7000882311F096E911C0772321F09EE8872F93
:100A8000762F05C0662371F096E8862F70E060E04F
:100A90002AF09A95660F771F881FDAF7880F9695C8
:100AA000879597F90895990F0008550FAA0BE0E86C
:100AB000FEEF16161706E807F907C0F01216130620
:100AC000E407F50798F0621B730B840B950B39F460
:100AD0000A2661F0232B242B252B21F408950A26C6
:100AE00009F4A140A6958FEF811D811D089597F906
:100AF0009F6780E870E060E008959FEF80EC0895C4
:100B000000240A94161617061806090608950024EC
:100B10000A9412161306140605060895092E039466
:100B2000000C11F4882352F0BB0F40F4BF2B11F4DA
:100B300060FF04C06F5F7F4F8F4F9F4F089557FD39
:100B40009058440F551F59F05F3F71F04795880F3B
:100B500097FB991F61F09F3F79F0879508951216D2
:100B600013061406551FF2CF4695F1DF08C016167E
:100B700017061806991FF1CF86957105610508942F
:100B80000895E894BB2766277727CB0197F9089546
:100B90008ADF08F48FEF08950BD0C0CFB1DF28F0C3
:100BA000B6DF18F0952309F0A2CFA7CF1124EACF22
:100BB000C6DFA0F3959FD1F3950F50E0551F629FBC
:100BC000F001729FBB27F00DB11D639FAA27F00DA6
:100BD000B11DAA1F649F6627B00DA11D661F829FCD
:100BE0002227B00DA11D621F739FB00DA11D621FB2
:100BF000839FA00D611D221F749F3327A00D611DCF
:100C0000231F849F600D211D822F762F6A2F1124B0
:100C10009F5750408AF0E1F088234AF0EE0FFF1F03
:100C2000BB1F661F771F881F91505040A9F79E3F3A
:100C3000510570F05CCFA6CF5F3FECF3983EDCF33C
:100C4000869577956795B795F795E7959F5FC1F777
:100C5000FE2B880F911D9695879597F9089597FB20
:100C6000092E07260AD077FD04D00CD006D000202C
:100C70001AF4709561957F4F0895F6F790958195D8
:100C80009F4F0895AA1BBB1B51E107C0AA1FBB1FA2
:100C9000A617B70710F0A61BB70B881F991F5A9508
:100CA000A9F780959095BC01CD010895E199FECFFB
:100CB0009FBB8EBBE09A99278DB30895262FE199AB
:100CC000FECF9FBB8EBB2DBB0FB6F894E29AE19A84
:0A0CD0000FBE01960895F894FFCFBF
:0E0CDA0050726573732044300053544F500025
:00000001FF
