:100000000C942A000C9447000C9447000C94470071
:100010000C9447000C9447000C9447000C94470044
:100020000C9447000C9447000C9447000C94470034
:100030000C9447000C9447000C9447000C94470024
:100040000C9447000C9447000C9447000C94470014
:100050000C94470011241FBECFE5D4E0DEBFCDBF16
:1000600010E0A0E6B0E0E8E4FDE002C005900D92EB
:10007000A038B107D9F710E0A0E8B0E001C01D92A8
:10008000AD38B107E1F70E943A040C94A2060C9433
:1000900000008FEF8BBB1ABA88BB17BA15BA84BBA6
:1000A00082BB11BA08958C9A8D9A1EBC1DBC1CBCD3
:1000B0001BBC1ABC19BC18BC81E087BD8FE886BD8B
:1000C00082EA8FBD89E18EBD08951ABA16B880E61E
:1000D00087B987E886B980E888B9089515B8877028
:1000E000806687B9369A3699FECF85B10895AC01FE
:1000F00030E060E971E00CC0FB013197F1F7019746
:10010000D9F72F5F243019F084EC99E0F5CF3F5FE9
:10011000832F90E08417950714F420E0F5CF08951D
:10012000AF92BF92CF92DF92EF92FF920F931F9305
:10013000AA2797FDA095BA2FBC01CD010E944F05BB
:100140005B016C0120E030E04AE755E40E940306C1
:100150007B018C0120E030E040E85FE30E94B504C1
:1001600088231CF461E070E024C0C801B70120E0DE
:100170003FEF4FE757E40E94FF051816B4F4C6019D
:10018000B50120E030E040E251E40E9403060E9405
:10019000210580E991E005C0FC013197F1F761503C
:1001A000704061157105C1F707C0C801B7010E9411
:1001B0002105CB010197F1F71F910F91FF90EF906F
:1001C000DF90CF90BF90AF900895AF92BF92CF9243
:1001D000DF92EF92FF920F931F93AA2797FDA095AE
:1001E000BA2FBC01CD010E944F055B016C012BEAC7
:1001F0003AEA4AEA50E40E9403067B018C0120E0BF
:1002000030E040E85FE30E94B504882314F461E025
:1002100054C0C801B70120E030E04FE753E40E942A
:10022000FF0518160CF045C0C601B50120E030E00E
:100230004AE754E40E94B9045B016C0120E030E01D
:100240004AE755E40E9403067B018C0120E030E080
:1002500040E85FE30E94B50488231CF461E070E08D
:1002600024C0C801B70120E03FEF4FE757E40E94E8
:10027000FF051816B4F4C601B50120E030E040E2F5
:1002800051E40E9403060E94210580E991E005C027
:10029000FC013197F1F76150704061157105C1F7AC
:1002A0000EC0C801B7010E942105CB010197F1F7EB
:1002B00006C0C801B7010E9421056A95F1F71F9198
:1002C0000F91FF90EF90DF90CF90BF90AF90089587
:1002D0000F931F93CF93DF9310928000C0E0D0E084
:1002E00001E010E08C2F0E946E00843660F49801CB
:1002F0000C2E02C0220F331F0A94E2F78091800077
:10030000822B809380002196C430D10559F7DF916C
:10031000CF911F910F91089580E00E946E0080930D
:10032000810081E00E946E008093820082E00E9442
:100330006E008093830083E00E946E0080938400AF
:10034000089580E00E946E008093890081E00E9401
:100350006E0080938A0082E00E946E0080938B0082
:1003600083E00E946E0080938C0008951F93CF93CA
:10037000DF93C0E0D0E01FEF15BB84E690E00E9461
:10038000900015BA84E690E00E9490002196C53056
:10039000D10591F7DF91CF911F9108959BBD8ABD43
:1003A000089599BD88BD089587B3807F87BBC69A9D
:1003B000C59882E08A95F1F722E035E0C79A822F4E
:1003C0008A95F1F786B38295807F922F9A95F1F7FF
:1003D000C798932F9A95F1F7C79A922F9A95F1F7AC
:1003E00096B3922F9A95F1F7C798932F9A95F1F7B4
:1003F00087FDE4CFC69887B38F6087BB0895282F09
:10040000662311F4C59801C0C59A82E08A95F1F778
:10041000C79A88B3922F92959F70807F982B98BB34
:1004200095E0892F8A95F1F7C798892F8A95F1F77A
:10043000C79A88B32F70807F822B88BB892F8A95BB
:10044000F1F7C7989A95F1F70E94D40108951F9388
:10045000182F8CE291E020E931E0F9013197F1F7B2
:100460000197D9F787B38F6087BBBF9ABD9ABE9AB1
:1004700088B3807F88BBC798C698C59881E08A9565
:10048000F1F7C79AC19A85E0982F9A95F1F7C79826
:100490008A95F1F70E94D401812F8C6060E00E9460
:1004A000FF0188E260E00E94FF011F910895CF9351
:1004B000DF93EC0104C061E00E94FF012196888176
:1004C0008823C9F7DF91CF910895EF92FF920F93A0
:1004D0001F93DF93CF9300D000D00F92CDB7DEB73C
:1004E0009C018B01FE01319685E0DF011D928A950A
:1004F000E9F7FE0135960DC0C9016AE070E00E947F
:1005000066068083C9016AE070E00E9466069B016E
:1005100031972115310581F7BFEF0F3F1B0779F4A4
:1005200020E030E0AE014F5F5F4F02C02F5F3F4FD2
:10053000FA01E20FF31F80818823C1F304C025E094
:1005400030E0201B310B7E010894E11CF11CE20E0F
:10055000F31E890109C0F70181917F01805D61E08F
:100560000E94FF010F5F1F4F05301105A4F30F908C
:100570000F900F900F900F90CF91DF911F910F91DF
:10058000FF90EF900895883230F4611180648068A4
:1005900060E00E94FF0108950F931F938A010E945B
:1005A000C302C8010E9457021F910F910895EF9254
:1005B000FF920F931F938A0179010E94C302C80121
:1005C000B7010E9465021F910F91FF90EF9008956F
:1005D0001AB81BB887E080BD87E689B910BC88E9E6
:1005E0008AB908955D9BFECF8CB90895FC0104C0C3
:1005F0005D9BFECF8CB9319680818823C9F7089521
:100600005D9BFECF8AE08CB95D9BFECF8DE08CB9FF
:1006100008955F9BFECF8CB108958FEF84BB089542
:10062000AC9AAD98AE98AF980895AC98AD9AAE9844
:10063000AF980895AC98AD98AE9AAF980895AC98DD
:10064000AD98AE9AAF980895AC9AAD98AE98AF9821
:100650000895AC98AD98AE98AF9A0895AC9AAD98BD
:10066000AE9AAF980895AC98AD9AAE98AF9A0895A7
:10067000AC98AD9AAE9AAF980895AC9AAD98AE98F2
:10068000AF9A0895AC98AD98AE98AF980895AC9A8B
:10069000AD9AAE9AAF9A089582B38F6082BB81B350
:1006A000807F81BB089520B330E020953095217084
:1006B0003070C901089520B330E036952795209514
:1006C000309521703070C901089520B330E036951F
:1006D0002795369527952095309521703070C90162
:1006E000089520B330E043E0369527954A95E1F729
:1006F0002095309521703070C9010895C89B09C0BC
:10070000CC9B07C082E090E060E070E040E650E003
:1007100099C0C89B09C0CD9B07C082E090E060E013
:1007200070E042E650E08EC0C89B09C0CE9B07C077
:1007300082E090E060E070E044E650E083C0C89B57
:1007400009C0CF9B07C082E090E060E070E046E621
:1007500050E078C0C99B09C0CC9B07C082E090E004
:1007600060E070E048E650E06DC0C99B09C0CD9BD9
:1007700007C082E090E060E070E04AE650E062C0CE
:10078000C99B09C0CE9B07C082E090E060E070E0AA
:100790004CE650E057C0C99B09C0CF9B07C082E020
:1007A00090E060E070E04EE650E04CC0CA9B09C0AB
:1007B000CC9B07C082E090E060E070E040E750E052
:1007C00041C0CA9B09C0CD9B07C082E090E060E0B9
:1007D00070E042E750E036C0CA9B09C0CE9B07C01C
:1007E00082E090E060E070E044E750E02BC0CA9BFC
:1007F00009C0CF9B07C082E090E060E070E046E770
:1008000050E020C0CB9B09C0CC9B07C082E090E0A9
:1008100060E070E048E750E015C0CB9B09C0CD9B7D
:1008200007C082E090E060E070E04AE750E00AC074
:10083000CB9B0FC0CE9B0DC082E090E060E070E0EB
:100840004CE750E00E94CC0281E090E00E947700EB
:100850000895CB9B0EC0CF9B0CC082E090E060E07F
:1008600070E04EE750E00E94CC0281E090E00E94F0
:100870007700089582E00E94270281E060E00E94F4
:10088000FF0180EF8ABB8FEF87BBDC98DD98DE9895
:10089000DF9A0E947E03DC98DD98DE9ADF980E9442
:1008A0007E03DC98DD9ADE98DF980E947E03DC9A56
:1008B000DD98DE98DF980E947E03E7CF80E090E02D
:1008C0000E948D068093850081E090E00E948D0655
:1008D0008093860082E090E00E948D0680938700DE
:1008E00083E090E00E948D06809388000895CF9366
:1008F000DF93209189008091810090E0820F911D0B
:10090000959587958093850020918A00809182003B
:1009100090E0820F911D9595879580938600209198
:100920008B008091830090E0820F911D95958795B3
:100930008093870020918C008091840090E0820F4A
:10094000911D9595879580938800C0E0D0E0FE01C9
:10095000EB57FF4FCE0160810E9495062196C4306F
:10096000D105A9F7DF91CF910895D4D008F481E0A3
:1009700008950CD00AC102D140F0F9D030F021F432
:100980005F3F19F0EBC0511134C1EEC00FD198F3A5
:100990009923C9F35523B1F3951B550BBB27AA2700
:1009A00062177307840738F09F5F5F4F220F331F72
:1009B000441FAA1FA9F333D00E2E3AF0E0E830D03E
:1009C00091505040E695001CCAF729D0FE2F27D041
:1009D000660F771F881FBB1F261737074807AB070F
:1009E000B0E809F0BB0B802DBF01FF2793585F4F84
:1009F0002AF09E3F510568F0B1C0FBC05F3FECF3A9
:100A0000983EDCF3869577956795B795F7959F5F48
:100A1000C9F7880F911D9695879597F90895E1E09C
:100A2000660F771F881FBB1F621773078407BA07FB
:100A300020F0621B730B840BBA0BEE1F88F7E09556
:100A40000895BCD088F09F5790F0B92F9927B751DF
:100A5000A0F0D1F0660F771F881F991F1AF0BA9582
:100A6000C9F712C0B13081F0C3D0B1E00895C0C061
:100A7000672F782F8827B85F39F0B93FCCF3869578
:100A800077956795B395D9F73EF4909580957095D5
:100A900061957F4F8F4F9F4F0895E89409C097FB52
:100AA0003EF490958095709561957F4F8F4F9F4F45
:100AB0009923A9F0F92F96E9BB279395F695879589
:100AC00077956795B795F111F8CFFAF4BB0F11F44C
:100AD00060FF1BC06F5F7F4F8F4F9F4F16C08823F3
:100AE00011F096E911C0772321F09EE8872F762F29
:100AF00005C0662371F096E8862F70E060E02AF06A
:100B00009A95660F771F881FDAF7880F9695879555
:100B100097F90895990F0008550FAA0BE0E8FEEF2A
:100B200016161706E807F907C0F012161306E407B1
:100B3000F50798F0621B730B840B950B39F40A26AA
:100B400061F0232B242B252B21F408950A2609F488
:100B5000A140A6958FEF811D811D089597F99F678C
:100B600080E870E060E008959FEF80EC0895002435
:100B70000A941616170618060906089500240A9402
:100B800012161306140605060895092E0394000C88
:100B900011F4882352F0BB0F40F4BF2B11F460FF17
:100BA00004C06F5F7F4F8F4F9F4F089557FD905840
:100BB000440F551F59F05F3F71F04795880F97FB21
:100BC000991F61F09F3F79F08795089512161306DB
:100BD0001406551FF2CF4695F1DF08C0161617060A
:100BE0001806991FF1CF869571056105089408953F
:100BF000E894BB2766277727CB0197F908958ADF0A
:100C000008F48FEF08950BD0C0CFB1DF28F0B6DF26
:100C100018F0952309F0A2CFA7CF1124EACFC6DFA1
:100C2000A0F3959FD1F3950F50E0551F629FF001FF
:100C3000729FBB27F00DB11D639FAA27F00DB11D58
:100C4000AA1F649F6627B00DA11D661F829F2227E1
:100C5000B00DA11D621F739FB00DA11D621F839F68
:100C6000A00D611D221F749F3327A00D611D231F3E
:100C7000849F600D211D822F762F6A2F11249F578C
:100C800050408AF0E1F088234AF0EE0FFF1FBB1FAF
:100C9000661F771F881F91505040A9F79E3F51054E
:100CA00070F05CCFA6CF5F3FECF3983EDCF3869507
:100CB00077956795B795F795E7959F5FC1F7FE2BF9
:100CC000880F911D9695879597F9089597FB092EA2
:100CD00007260AD077FD04D00CD006D000201AF4E5
:100CE000709561957F4F0895F6F7909581959F4F88
:100CF0000895AA1BBB1B51E107C0AA1FBB1FA61763
:100D0000B70710F0A61BB70B881F991F5A95A9F7B4
:100D100080959095BC01CD010895E199FECF9FBBD0
:100D20008EBBE09A99278DB30895262FE199FECFC7
:100D30009FBB8EBB2DBB0FB6F894E29AE19A0FBE13
:080D400001960895F894FFCF1D
:100D48004100420043004400450046004700480077
:100D580031003200330034003500360037003800E7
:00000001FF
