:100000000C942A000C9447000C9447000C94470071
:100010000C9447000C9447000C9447000C94470044
:100020000C9447000C9447000C9447000C94470034
:100030000C9447000C9447000C9447000C94470024
:100040000C9447000C9447000C9447000C94470014
:100050000C94470011241FBECFE5D4E0DEBFCDBF16
:1000600010E0A0E6B0E0ECE5FAE102C005900D92E8
:10007000A83EB107D9F711E0A8EEB0E001C01D928B
:10008000A733B107E1F70E9409090C942C0D0C94D9
:1000900000008FEF8BBB1ABA88BB17BA15BA84BBA6
:1000A00082BB11BA08958C9A8D9A1EBC1DBC1CBCD3
:1000B0001BBC1ABC19BC18BC81E087BD8FE886BD8B
:1000C00082EA8FBD89E18EBD089589E685BD0895D8
:1000D00089E683BF08951ABA16B880E687B987E81B
:1000E00086B980E888B9089515B88770806687B9A1
:1000F000369A3699FECF85B10895AC0130E060E9BB
:1001000071E00CC0FB013197F1F70197D9F72F5F30
:10011000243019F084EC99E0F5CF3F5F832F90E015
:100120008417950714F420E0F5CF0895AF92BF929D
:10013000CF92DF92EF92FF920F931F93AA2797FD22
:10014000A095BA2FBC01CD010E94D90B5B016C01B7
:1001500020E030E04AE755E40E948D0C7B018C01E1
:1001600020E030E040E85FE30E943A0B88231CF473
:1001700061E070E024C0C801B70120E03FEF4FE725
:1001800057E40E94890C1816B4F4C601B50120E0AA
:1001900030E040E251E40E948D0C0E94AB0B80E9FC
:1001A00091E005C0FC013197F1F761507040611595
:1001B0007105C1F707C0C801B7010E94AB0BCB01A5
:1001C0000197F1F71F910F91FF90EF90DF90CF9083
:1001D000BF90AF900895AF92BF92CF92DF92EF920F
:1001E000FF920F931F93AA2797FDA095BA2FBC01EA
:1001F000CD010E94D90B5B016C012BEA3AEA4AEA75
:1002000050E40E948D0C7B018C0120E030E040E83E
:100210005FE30E943A0B882314F461E054C0C801E4
:10022000B70120E030E04FE753E40E94890C181634
:100230000CF045C0C601B50120E030E04AE754E4C7
:100240000E943E0B5B016C0120E030E04AE755E480
:100250000E948D0C7B018C0120E030E040E85FE3E0
:100260000E943A0B88231CF461E070E024C0C801AE
:10027000B70120E03FEF4FE757E40E94890C1816C2
:10028000B4F4C601B50120E030E040E251E40E9440
:100290008D0C0E94AB0B80E991E005C0FC01319709
:1002A000F1F76150704061157105C1F70EC0C801CA
:1002B000B7010E94AB0BCB010197F1F706C0C80153
:1002C000B7010E94AB0B6A95F1F71F910F91FF9058
:1002D000EF90DF90CF90BF90AF9008950F931F9352
:1002E000CF93DF931092E800C0E0D0E001E010E08F
:1002F0008C2F0E947400843660F498010C2E02C08A
:10030000220F331F0A94E2F78091E800822B80933A
:10031000E8002196C430D10559F7DF91CF911F91A4
:100320000F91089580E00E94740080932B0181E07A
:100330000E94740080932C0182E00E9474008093DC
:100340002D0183E00E94740080932E01089580E0C7
:100350000E9474008093330181E00E9474008093B6
:10036000340182E00E9474008093350183E00E9492
:1003700074008093360108951F93CF93DF93C0E0FC
:10038000D0E01FEF15BB84E690E00E94960015BAFE
:1003900084E690E00E9496002196C530D10591F741
:1003A000DF91CF911F9108959BBD8ABD089599BD9E
:1003B00088BD089583BD08958CBF089587B3807F5D
:1003C00087BBC69AC59882E08A95F1F722E035E0AE
:1003D000C79A822F8A95F1F786B38295807F922FF4
:1003E0009A95F1F7C798932F9A95F1F7C79A922F9C
:1003F0009A95F1F796B3922F9A95F1F7C798932FA4
:100400009A95F1F787FDE4CFC69887B38F6087BBD5
:100410000895282F662311F4C59801C0C59A82E07B
:100420008A95F1F7C79A88B3922F92959F70807F33
:10043000982B98BB95E0892F8A95F1F7C798892F5B
:100440008A95F1F7C79A88B32F70807F822B88BB7B
:10045000892F8A95F1F7C7989A95F1F70E94DE01E6
:1004600008951F93182F8CE291E020E931E0F90103
:100470003197F1F70197D9F787B38F6087BBBF9AA0
:10048000BD9ABE9A88B3807F88BBC798C698C59826
:1004900081E08A95F1F7C79AC19A85E0982F9A95DD
:1004A000F1F7C7988A95F1F70E94DE01812F8C60E1
:1004B00060E00E94090288E260E00E9409021F9148
:1004C0000895CF93DF93EC0104C061E00E9409021C
:1004D000219688818823C9F7DF91CF910895EF9203
:1004E000FF920F931F93DF93CF9300D000D00F9212
:1004F000CDB7DEB79C018B01FE01319685E0DF01AF
:100500001D928A95E9F7FE0135960DC0C9016AE092
:1005100070E00E94F00C8083C9016AE070E00E94E4
:10052000F00C9B0131972115310581F7BFEF0F3F8B
:100530001B0779F420E030E0AE014F5F5F4F02C04F
:100540002F5F3F4FFA01E20FF31F80818823C1F331
:1005500004C025E030E0201B310B7E010894E11C33
:10056000F11CE20EF31E890109C0F70181917F01A0
:10057000805D61E00E9409020F5F1F4F0530110589
:10058000A4F30F900F900F900F900F90CF91DF91E9
:100590001F910F91FF90EF900895883230F4611110
:1005A0008064806860E00E94090208950F931F93A1
:1005B0008A010E94CD02C8010E9461021F910F9121
:1005C0000895EF92FF920F931F938A0179010E9481
:1005D000CD02C801B7010E946F021F910F91FF90D9
:1005E000EF9008951AB81BB887E080BD87E689B9F7
:1005F00010BC88E98AB908955D9BFECF8CB9089537
:10060000FC0104C05D9BFECF8CB9319680818823AC
:10061000C9F708955D9BFECF8AE08CB95D9BFECF44
:100620008DE08CB908955F9BFECF8CB108958FEF5C
:1006300084BB0895AC9AAD98AE98AF980895AC98E5
:10064000AD9AAE98AF980895AC98AD98AE9AAF9821
:100650000895AC98AD98AE9AAF980895AC9AAD98BD
:10066000AE98AF980895AC98AD98AE98AF9A0895AB
:10067000AC9AAD98AE9AAF980895AC98AD9AAE98F2
:10068000AF9A0895AC98AD9AAE9AAF980895AC9A87
:10069000AD98AE98AF9A0895AC98AD98AE98AF98D3
:1006A0000895AC9AAD9AAE9AAF9A089582B38F60CE
:1006B00082BB81B3807F81BB089520B330E0209559
:1006C000309521703070C901089520B330E036951F
:1006D00027952095309521703070C901089520B379
:1006E00030E03695279536952795209530952170E1
:1006F0003070C901089520B330E043E03695279566
:100700004A95E1F72095309521703070C901089520
:1007100081E060E00E94090210922A0110922901F2
:1007200019C08091290190912A01892B51F485E00B
:1007300090E061E070E040E650E00E94D602A89AA6
:10074000A9988091290190912A01019690932A01FC
:10075000809329018199E5CF10922A0110922901F5
:100760001DC08091290190912A01892B71F481E0AB
:1007700060E00E94090285E090E060E070E040E601
:1007800050E00E94D602A89AA998809129019091E0
:100790002A01019690932A01809329018099E1CF43
:1007A000089581E060E00E94090210922A011092EF
:1007B00029011DC08091290190912A01892B71F492
:1007C00081E060E00E94090285E090E060E070E076
:1007D00048E650E00E94D602A898A99A8091290183
:1007E00090912A01019690932A0180932901809B80
:1007F000E1CF10922A01109229011DC08091290198
:1008000090912A01892B71F481E060E00E94090235
:1008100085E090E061E070E048E650E00E94D6029A
:10082000A898A99A8091290190912A010196909304
:100830002A0180932901819BE1CF0895CF93DF9313
:100840009C01009769F41092080110920701AB987F
:10085000AA9881E090E090931C0180931B0114C042
:10086000181619063CF49093080180930701AB9A7F
:10087000AA980AC088279927821B930B9093080196
:1008800080930701AB98AA9A869B06C081E090E00E
:100890009093140180931301AB9AAA9886E983BDC3
:1008A00081E060E00E940902409107015091080137
:1008B00087E090E060E070E023E030E00E94E10239
:1008C000C1E0D0E04AC0869B04C0D0931A01C09317
:1008D0001901869904C010921A01109219012091F1
:1008E0001301309114018091190190911A01281778
:1008F0003907D1F040910D0150910E014F5F5F4FCC
:1009000050930E0140930D018CE090E060E070E0A8
:1009100023E030E00E94E1028091190190911A01D8
:10092000909314018093130120910D0130910E01D9
:1009300080910701909108012817390771F4AA9A4C
:10094000AB9A89E090E061E070E042E750E00E94FD
:10095000D602D0931C01C0931B0180911B01909182
:100960001C01892B09F4AFCFAA98AB98DF91CF91E6
:100970000895CF93DF93EC016091FD007091FE002C
:100980008091FF00909100012091010130910201BE
:1009900040910301509104010E943A0B882379F49D
:1009A0001092060110920501AC98AD98AE98AF98E0
:1009B00081E090E090931E0180931D011AC01C16E7
:1009C0001D064CF4D0930601C0930501AC9AAD9876
:1009D000AE9AAF980EC0209761F0882799278C1B9C
:1009E0009D0B9093060180930501AC98AD9AAE984B
:1009F000AF9A839B06C081E090E0909312018093B0
:100A00001101829B06C081E090E0909310018093D9
:100A10000F01AC9AAD98AF98AE9A8EEE90E09BBD68
:100A20008ABD82EF90E099BD88BD81E060E00E94C0
:100A30000902409105015091060187E090E060E0D5
:100A400070E023E030E00E94E102C1E0D0E0A2C00B
:100A5000829B04C0D0931601C0931501839B04C0F0
:100A6000D0931801C0931701829904C01092160107
:100A700010921501839904C0109218011092170169
:100A800020910F0130911001809115019091160174
:100A900028173907D1F04091090150910A014F5FA1
:100AA0005F4F50930A014093090181E090E060E0BC
:100AB00070E023E030E00E94E10280911501909106
:100AC00016019093100180930F0120911101309134
:100AD0001201809117019091180128173907D1F060
:100AE00040910B0150910C014F5F5F4F50930C01EF
:100AF00040930B018CE090E060E070E023E030E098
:100B00000E94E102809117019091180190931201C7
:100B1000809311012091090130910A018091050112
:100B2000909106012817390751F4AE9AAF9A8BE0DD
:100B300090E061E070E042E750E00E94D602209130
:100B40000B0130910C01809105019091060128174D
:100B5000390751F4AC9AAD9A82E090E061E070E020
:100B600042E750E00E94D6022091090130910A012B
:100B700080910501909106012817390759F4809159
:100B80000B0190910C018217930721F4D0931E0161
:100B9000C0931D0180911D0190911E01892B09F4C4
:100BA00057CFAC98AD98AE98AF98DF91CF9108959C
:100BB000AF92BF92CF92DF92EF92FF920F931F936B
:100BC0008091250190912601892B71F581E060E0EB
:100BD0000E94090280E090E060E070E047E750E0AA
:100BE0000E94D60283E090E061E070E047E850E0C8
:100BF0000E94D6028AE090E061E070E04AE850E0AE
:100C00000E94D60288E893E120E931E0F9013197AA
:100C1000F1F70197D9F7809125019091260101966E
:100C200090932601809325018091270190912801BE
:100C3000892B91F181E060E00E94090280E090E060
:100C400060E070E04DE850E00E94D60283E090E062
:100C500061E070E047E850E00E94D6028AE090E050
:100C600061E070E04AE850E00E94D60288E893E133
:100C700020E931E0F9013197F1F70197D9F71092A6
:100C8000280110922701809123019091240101965F
:100C90009093240180932301C89B20C0CC9B1EC04D
:100CA00085E090E061E070E04EE950E00E94D602FD
:100CB00080E090E0A0E8BFE38093ED009093EE0029
:100CC000A093EF00B093F00088EE93E020E931E0CC
:100CD000F9013197F1F70197D9F7FDC1C89B20C001
:100CE000CD9B1EC085E090E061E070E040EA50E0FE
:100CF0000E94D60280E090E0A0E0B0E48093ED0096
:100D00009093EE00A093EF00B093F00088EE93E094
:100D100020E931E0F9013197F1F70197D9F7DBC10B
:100D2000C89B20C0CE9B1EC085E090E061E070E0D3
:100D300042EA50E00E94D60280E090E0A0E4B0E4F5
:100D40008093ED009093EE00A093EF00B093F0003D
:100D500088EE93E020E931E0F9013197F1F701974E
:100D6000D9F7B9C1C89B20C0CF9B1EC085E090E0D9
:100D700061E070E044EA50E00E94D60280E090E03A
:100D8000A0E8B0E48093ED009093EE00A093EF0014
:100D9000B093F00088EE93E020E931E0F90131975B
:100DA000F1F70197D9F797C1C99B20C0CC9B1EC012
:100DB00085E090E061E070E046EA50E00E94D602F3
:100DC00080E090E0A0EAB0E48093ED009093EE0024
:100DD000A093EF00B093F00088EE93E020E931E0BB
:100DE000F9013197F1F70197D9F775C1C99B20C077
:100DF000CD9B1EC085E090E061E070E048EA50E0E5
:100E00000E94D60280E090E0A0ECB0E48093ED0078
:100E10009093EE00A093EF00B093F00088EE93E083
:100E200020E931E0F9013197F1F70197D9F753C182
:100E3000C99B20C0CE9B1EC085E090E061E070E0C1
:100E40004AEA50E00E94D60280E090E0A0EEB0E4D2
:100E50008093ED009093EE00A093EF00B093F0002C
:100E600088EE93E020E931E0F9013197F1F701973D
:100E7000D9F731C1C99B20C0CF9B1EC085E090E04F
:100E800061E070E04CEA50E00E94D60280E090E021
:100E9000A0E0B1E48093ED009093EE00A093EF000A
:100EA000B093F00088EE93E020E931E0F90131974A
:100EB000F1F70197D9F70FC1CA9B20C0CC9B1EC088
:100EC0008CE090E061E070E04EEA50E00E94D602D3
:100ED00080E090E0A0E8BFE38093F1009093F200FF
:100EE000A093F300B093F40080E197E220E931E0B1
:100EF000F9013197F1F70197D9F7EDC0CA9B20C0EE
:100F0000CD9B1EC08CE090E061E070E040EB50E0D3
:100F10000E94D60280E090E0A0E0B0E48093F1006F
:100F20009093F200A093F300B093F40080E197E275
:100F300020E931E0F9013197F1F70197D9F7CBC0FA
:100F4000CA9B20C0CE9B1EC08CE090E061E070E0A8
:100F500042EB50E00E94D60280E090E0A0E4B0E4D2
:100F60008093F1009093F200A093F300B093F4000B
:100F700080E197E220E931E0F9013197F1F701973B
:100F8000D9F7A9C0CA9B20C0CF9B1EC08CE090E0BF
:100F900061E070E044EB50E00E94D60280E090E017
:100FA000A0E8B0E48093F1009093F200A093F300E6
:100FB000B093F40080E197E220E931E0F901319744
:100FC000F1F70197D9F787C0CB9B20C0CC9B1EC0FF
:100FD0008CE090E061E070E046EB50E00E94D602C9
:100FE00080E090E0A0EAB0E48093F1009093F200FA
:100FF000A093F300B093F40080E197E220E931E0A0
:10100000F9013197F1F70197D9F765C0CB9B20C063
:10101000CD9B1EC08CE090E061E070E048EB50E0BA
:101020000E94D60280E090E0A0ECB0E48093F10052
:101030009093F200A093F300B093F40080E197E264
:1010400020E931E0F9013197F1F70197D9F743C071
:10105000CB9B20C0CE9B1EC08CE090E061E070E096
:101060004AEB50E00E94D60280E090E0A0EEB0E4AF
:101070008093F1009093F200A093F300B093F400FA
:1010800080E197E220E931E0F9013197F1F701972A
:10109000D9F721C0CB9B1FC0CF9B1DC08CE090E037
:1010A00061E070E04CEB50E00E94D60280E090E0FE
:1010B000A0E0B1E48093F1009093F200A093F300DC
:1010C000B093F40080E197E220E931E0F901319733
:1010D000F1F70197D9F7A090ED00B090EE00C09025
:1010E000EF00D090F000C601B50120E030E040E014
:1010F00050E00E943A0B882309F482C0E090F1008E
:10110000F090F2000091F3001091F400C801B701D3
:1011100020E030E040E050E00E943A0B882309F4E0
:101120006FC08091210190912201892B99F5A092A5
:10113000F500B092F600C092F700D092F800E0926D
:10114000FD00F092FE000093FF001093000181E08B
:1011500090E090932201809321018091270190914A
:1011600028010196909328018093270180E090E068
:10117000A0E0B0E08093ED009093EE00A093EF002C
:10118000B093F0008093F1009093F200A093F300ED
:10119000B093F400209123013091240121153105F1
:1011A00079F18091ED009091EE00A091EF00B09167
:1011B000F0008093F9009093FA00A093FB00B093A5
:1011C000FC008091F1009091F200A091F300B091A9
:1011D000F4008093010190930201A0930301B09366
:1011E00004012F5F3F4F309324012093230180910E
:1011F0001F019091200101969093200180931F017F
:101200001F910F91FF90EF90DF90CF90BF90AF9024
:101210000895EF92FF920F931F9389E685BD0E9478
:10122000530082E00E94310281E060E00E940902E6
:1012300080EB81BB8FEF82BB84BB85BB87BB80EF1C
:101240008ABB84E090E060E070E04EEB50E00E94EA
:10125000D60284E090E061E070E046EC50E00E944D
:10126000D602DC9AC8991BC0CC99FCCF18C0DC9878
:10127000DD98DE98DF9A0E94D805DC98DD98DE9A2A
:10128000DF980E94D805DC98DD9ADE98DF980E94EE
:10129000D805DC9ADD98DE98DF980E94D805809109
:1012A0001F0190912001892B11F381E060E00E94E1
:1012B000090281E090E060E070E04FEC50E00E94B5
:1012C000D60285E090E060E070E042ED50E00E94E0
:1012D000D6028AE090E060E070E045ED50E00E94C8
:1012E000D6028DE090E060E070E048ED50E00E94B2
:1012F000D6026091F5007091F6008091F700909110
:10130000F8000E94A60B9B01AC0181E090E061E037
:1013100070E0A90121E030E00E94E1026091FD004F
:101320007091FE008091FF00909100010E94A60B39
:101330009B01AC0185E090E061E070E0A90121E053
:1013400030E00E94E1026091F9007091FA00809112
:10135000FB009091FC000E94A60B9B01AC018AE06F
:1013600090E061E070E0A90121E030E00E94E1023C
:10137000609101017091020180910301909104013B
:101380000E94A60B9B01AC018DE090E061E070E053
:10139000A90121E030E00E94E10280E197E220E92A
:1013A00031E0F9013197F1F70197D9F76091F50034
:1013B0007091F6008091F7009091F8002091DF0085
:1013C0003091E0004091E1005091E2000E94D50A86
:1013D00020E030E040E851E40E948D0C0E94A60B12
:1013E0007B018C017093EA006093E9006091FD003D
:1013F0007091FE008091FF00909100012091E30028
:101400003091E4004091E5005091E6000E94D50A39
:1014100020E030E040E851E40E948D0C0E94A60BD1
:101420007093EC006093EB00C7010E941E0488E8F3
:1014300093E120E931E0F9013197F1F70197D9F70C
:101440008091EB009091EC000E94B90488E893E150
:1014500020E931E0F9013197F1F70197D9F70E94BE
:1014600088036091F9007091FA008091FB009091DF
:10147000FC002091F5003091F6004091F70050916A
:10148000F8000E94D50A20E030E040E851E40E94D4
:101490008D0C0E94A60B7093EA006093E9006091A6
:1014A000010170910201809103019091040120914A
:1014B000FD003091FE004091FF00509100010E941C
:1014C000D50A20E030E040E851E40E948D0C0E94F3
:1014D000A60B7093EC006093EB0081E060E00E944B
:1014E000090286E090E060E070E04BED50E00E9481
:1014F000D6021F910F91FF90EF90089580E090E049
:101500000E94170D80932F0181E090E00E94170D3B
:101510008093300182E090E00E94170D80933101AA
:1015200083E090E00E94170D809332010895CF93DD
:10153000DF932091330180912B0190E0820F911D68
:101540009595879580932F012091340180912C01EE
:1015500090E0820F911D95958795809330012091A1
:10156000350180912D0190E0820F911D9595879511
:10157000809331012091360180912E0190E0820FFD
:10158000911D9595879580933201C0E0D0E0FE01D2
:10159000E15DFE4FCE0160810E941F0D2196C43097
:1015A000D105A9F7DF91CF9108955058BB27AA27FD
:1015B0000ED075C166D130F06BD120F031F49F3F71
:1015C00011F41EF45BC10EF4E095E7FB51C1E92F65
:1015D00077D180F3BA17620773078407950718F06D
:1015E00071F49EF58FC10EF4E0950B2EBA2FA02D4D
:1015F0000B01B90190010C01CA01A0011124FF27C0
:10160000591B99F0593F50F4503E68F11A16F040BA
:10161000A22F232F342F4427585FF3CF46953795B9
:101620002795A795F0405395C9F77EF41F16BA0B7E
:10163000620B730B840BBAF09150A1F0FF0FBB1F2C
:10164000661F771F881FC2F70EC0BA0F621F731F75
:10165000841F48F4879577956795B795F7959E3FD2
:1016600008F0B3CF9395880F08F09927EE0F979560
:1016700087950895D9D008F481E008950CD00FC162
:1016800007D140F0FED030F021F45F3F19F0F0C0F8
:10169000511139C1F3C014D198F39923C9F35523DB
:1016A000B1F3951B550BBB27AA2762177307840755
:1016B00038F09F5F5F4F220F331F441FAA1FA9F30B
:1016C00033D00E2E3AF0E0E830D091505040E695FD
:1016D000001CCAF729D0FE2F27D0660F771F881F5E
:1016E000BB1F261737074807AB07B0E809F0BB0B4D
:1016F000802DBF01FF2793585F4F2AF09E3F510571
:1017000068F0B6C000C15F3FECF3983EDCF386950D
:1017100077956795B795F7959F5FC9F7880F911DE6
:101720009695879597F90895E1E0660F771F881FD2
:10173000BB1F621773078407BA0720F0621B730B85
:10174000840BBA0BEE1F88F7E095089504D06894D7
:10175000B111D9C00895BCD088F09F5790F0B92F2F
:101760009927B751A0F0D1F0660F771F881F991FF6
:101770001AF0BA95C9F712C0B13081F0C3D0B1E008
:101780000895C0C0672F782F8827B85F39F0B93F18
:10179000CCF3869577956795B395D9F73EF49095F8
:1017A0008095709561957F4F8F4F9F4F0895E89476
:1017B00009C097FB3EF490958095709561957F4F99
:1017C0008F4F9F4F9923A9F0F92F96E9BB27939547
:1017D000F695879577956795B795F111F8CFFAF457
:1017E000BB0F11F460FF1BC06F5F7F4F8F4F9F4F88
:1017F00016C0882311F096E911C0772321F09EE8E6
:10180000872F762F05C0662371F096E8862F70E04B
:1018100060E02AF09A95660F771F881FDAF7880F25
:101820009695879597F90895990F0008550FAA0B7B
:10183000E0E8FEEF16161706E807F907C0F01216E3
:101840001306E407F50798F0621B730B840B950BE6
:1018500039F40A2661F0232B242B252B21F408953B
:101860000A2609F4A140A6958FEF811D811D0895D8
:1018700097F99F6780E870E060E008959FEF80EC43
:10188000089500240A9416161706180609060895E6
:1018900000240A9412161306140605060895092E4C
:1018A0000394000C11F4882352F0BB0F40F4BF2BBB
:1018B00011F460FF04C06F5F7F4F8F4F9F4F0895FB
:1018C00057FD9058440F551F59F05F3F71F04795F1
:1018D000880F97FB991F61F09F3F79F087950895D6
:1018E000121613061406551FF2CF4695F1DF08C0F5
:1018F000161617061806991FF1CF86957105610512
:1019000008940895E894BB2766277727CB0197F9B9
:1019100008958ADF08F48FEF08950BD0C0CFB1DFB0
:1019200028F0B6DF18F0952309F0A2CFA7CF112435
:10193000EACFC6DFA0F3959FD1F3950F50E0551F76
:10194000629FF001729FBB27F00DB11D639FAA2714
:10195000F00DB11DAA1F649F6627B00DA11D661F63
:10196000829F2227B00DA11D621F739FB00DA11D84
:10197000621F839FA00D611D221F749F3327A00D3E
:10198000611D231F849F600D211D822F762F6A2FDA
:1019900011249F5750408AF0E1F088234AF0EE0F5F
:1019A000FF1FBB1F661F771F881F91505040A9F76C
:1019B0009E3F510570F05CCFA6CF5F3FECF3983EA1
:1019C000DCF3869577956795B795F795E7959F5FD3
:1019D000C1F7FE2B880F911D9695879597F908956D
:1019E00097FB092E07260AD077FD04D00CD006D02D
:1019F00000201AF4709561957F4F0895F6F7909541
:101A000081959F4F0895AA1BBB1B51E107C0AA1FD8
:101A1000BB1FA617B70710F0A61BB70B881F991F8F
:101A20005A95A9F780959095BC01CD010895E1994B
:101A3000FECF9FBB8EBBE09A99278DB30895262FCA
:101A4000E199FECF9FBB8EBB2DBB0FB6F894E29AF7
:0C1A5000E19A0FBE01960895F894FFCFB4
:101A5C004D4F5645205550004D4F564520444F573D
:101A6C004E0053544F5000454E54455220494E4958
:101A7C005420504F533A00583A00593A00454E54AE
:101A8C0045522046494E414C20504F533A0041009C
:101A9C004200430044004500460047004800310026
:101AAC0032003300340035003600370038005072F5
:101ABC00657373204100544F2053544152540058C5
:101ACC003100593100583200593200454E44000063
:081ADC00009040000090400062
:00000001FF
