:100000000C942A000C9447000C9447000C94470071
:100010000C9447000C9447000C9447000C94470044
:100020000C9447000C9447000C9447000C94470034
:100030000C9447000C9447000C9447000C94470024
:100040000C9447000C9447000C9447000C94470014
:100050000C94470011241FBECFE5D4E0DEBFCDBF16
:1000600011E0A0E6B0E0EEE5F4E302C005900D92E9
:10007000AE36B107D9F711E0AEE6B1E001C01D928E
:10008000A93AB107E1F70E9437040C942D1A0C9499
:1000900000008FEF8BBB1ABA88BB17BA15BA84BBA6
:1000A00082BB11BA08958C9A8D9A1EBC1DBC1CBCD3
:1000B0001BBC1ABC19BC18BC81E087BD8FE886BD8B
:1000C00082EA8FBD89E18EBD08951ABA16B880E61E
:1000D00087B987E886B980E888B9089515B8877028
:1000E000806687B9369A3699FECF85B10895AC01FE
:1000F00030E060E971E00CC0FB013197F1F7019746
:10010000D9F72F5F243019F084EC99E0F5CF3F5FE9
:10011000832F90E08417950714F420E0F5CF08951D
:10012000AF92BF92CF92DF92EF92FF920F931F9305
:10013000AA2797FDA095BA2FBC01CD010E94DA181D
:100140005B016C0120E030E04AE755E40E948E1923
:100150007B018C0120E030E040E85FE30E94401822
:1001600088231CF461E070E024C0C801B70120E0DE
:100170003FEF4FE757E40E948A191816B4F4C601FE
:10018000B50120E030E040E251E40E948E190E9467
:10019000AC1880E991E005C0FC013197F1F761509E
:1001A000704061157105C1F707C0C801B7010E9411
:1001B000AC18CB010197F1F71F910F91FF90EF90D1
:1001C000DF90CF90BF90AF900895AF92BF92CF9243
:1001D000DF92EF92FF920F931F93AA2797FDA095AE
:1001E000BA2FBC01CD010E94DA185B016C012BEA29
:1001F0003AEA4AEA50E40E948E197B018C0120E021
:1002000030E040E85FE30E944018882314F461E086
:1002100054C0C801B70120E030E04FE753E40E942A
:100220008A1918160CF045C0C601B50120E030E06F
:100230004AE754E40E9444185B016C0120E030E07E
:100240004AE755E40E948E197B018C0120E030E0E2
:1002500040E85FE30E94401888231CF461E070E0EE
:1002600024C0C801B70120E03FEF4FE757E40E94E8
:100270008A191816B4F4C601B50120E030E040E256
:1002800051E40E948E190E94AC1880E991E005C0EB
:10029000FC013197F1F76150704061157105C1F7AC
:1002A0000EC0C801B7010E94AC18CB010197F1F74D
:1002B00006C0C801B7010E94AC186A95F1F71F91FA
:1002C0000F91FF90EF90DF90CF90BF90AF90089587
:1002D000EF92FF921F93CF93DF9310926E01C0E0D5
:1002E000D0E081E0E82EF12C8C2F0E946E00FE0100
:1002F000E957FE4F9081981760F497010C2E02C0C9
:10030000220F331F0A94E2F780916E01822B8093B3
:100310006E012196C430D10539F7DF91CF911F913D
:10032000FF90EF9008950F931F93CF93DF93C7E94A
:10033000D1E000E0802F0E946E00888310E0802FC3
:100340000E946E00982F8881891708F498831F5F98
:100350001A30A9F70F5F2196043061F7DF91CF9132
:100360001F910F9108950F931F93CF93DF93CBE9C4
:10037000D1E000E0802F0E946E00888310E0802F83
:100380000E946E00982F8881981708F498831F5F49
:100390001A30A9F70F5F2196043061F7DF91CF91F2
:1003A0001F910F9108951F93CF93DF93C0E0D0E08A
:1003B0001FEF15BB84E690E00E94900015BA84E61A
:1003C00090E00E9490002196C530D10591F7DF9111
:1003D000CF911F9108959BBD8ABD089599BD88BD99
:1003E000089587B3807F87BBC69AC59882E08A95B7
:1003F000F1F722E035E0C79A822F8A95F1F786B3AC
:100400008295807F922F9A95F1F7C798932F9A95AE
:10041000F1F7C79A922F9A95F1F796B3922F9A9582
:10042000F1F7C798932F9A95F1F787FDE4CFC69817
:1004300087B38F6087BB0895282F662311F4C59872
:1004400001C0C59A82E08A95F1F7C79A88B3922FC6
:1004500092959F70807F982B98BB95E0892F8A9505
:10046000F1F7C798892F8A95F1F7C79A88B32F704B
:10047000807F822B88BB892F8A95F1F7C7989A9540
:10048000F1F70E94F10108951F93182F8CE291E07B
:1004900020E931E0F9013197F1F70197D9F787B3F6
:1004A0008F6087BBBF9ABD9ABE9A88B3807F88BB96
:1004B000C798C698C59881E08A95F1F7C79AC19AFE
:1004C00085E0982F9A95F1F7C7988A95F1F70E94E1
:1004D000F101812F8C6060E00E941C0288E260E0E4
:1004E0000E941C021F910895CF93DF93EC0104C07A
:1004F00061E00E941C02219688818823C9F7DF9160
:10050000CF910895EF92FF920F931F93DF93CF93B4
:1005100000D000D00F92CDB7DEB79C018B01FE0159
:10052000319685E0DF011D928A95E9F7FE01359647
:100530000DC0C9016AE070E00E94F1198083C90111
:100540006AE070E00E94F1199B0131972115310595
:1005500081F7BFEF0F3F1B0779F420E030E0AE01D9
:100560004F5F5F4F02C02F5F3F4FFA01E20FF31F53
:1005700080818823C1F304C025E030E0201B310BCB
:100580007E010894E11CF11CE20EF31E890109C0F2
:10059000F70181917F01805D61E00E941C020F5F85
:1005A0001F4F05301105A4F30F900F900F900F907F
:1005B0000F90CF91DF911F910F91FF90EF900895D1
:1005C000883230F461118064806860E00E941C020F
:1005D00008950F931F938A010E94E002C8010E94B0
:1005E00074021F910F910895EF92FF920F931F9342
:1005F0008A0179010E94E002C801B7010E948202CB
:100600001F910F91FF90EF9008951AB81BB887E0E3
:1006100080BD87E689B910BC88E98AB908955D9BD9
:10062000FECF8CB90895FC0104C05D9BFECF8CB950
:10063000319680818823C9F708955D9BFECF8AE0BB
:100640008CB95D9BFECF8DE08CB908955F9BFECF8A
:100650008CB108958FEF84BB0895AC9AAD98AE9895
:10066000AF980895AC98AD9AAE98AF980895AC98AD
:10067000AD98AE9AAF980895AC98AD98AE9AAF98F1
:100680000895AC9AAD98AE98AF980895AC98AD988F
:10069000AE98AF9A0895AC9AAD98AE9AAF98089577
:1006A000AC98AD9AAE98AF9A0895AC98AD9AAE9AC0
:1006B000AF980895AC9AAD98AE98AF9A0895AC985B
:1006C000AD98AE98AF980895AC9AAD9AAE9AAF9A9D
:1006D000089582B38F6082BB81B3807F81BB089510
:1006E00020B330E02095309521703070C901089515
:1006F00020B330E0369527952095309521703070E5
:10070000C901089520B330E0369527953695279591
:100710002095309521703070C901089520B330E0E4
:1007200053E0369527955A95E1F72095309521703D
:100730003070C9010895809193019091940162E015
:1007400070E00E94F1199C018091A3019091A40195
:1007500062E070E00E94F1192817390729F410921D
:10076000A00110929F0106C081E090E09093A0014B
:1007700080939F01809191009091920062E070E0DF
:100780000E94F1199C01809193009091940062E085
:1007900070E00E94F1192817390729F4109284019A
:1007A0001092830106C081E090E0909384018093D1
:1007B0008301809195009091960062E070E00E9424
:1007C000F1199C01809197009091980062E070E08F
:1007D0000E94F1192817390729F410929A001092F3
:1007E000990006C081E090E090939A008093990070
:1007F00080919B0090919C0062E070E00E94F11952
:100800009C0180919D0090919E0062E070E00E94AA
:10081000F1192817390729F41092A4001092A300A7
:1008200006C081E090E09093A4008093A3008091A3
:100830009F009091A00062E070E00E94F1199C017D
:100840008091A1009091A20062E070E00E94F119F5
:100850002817390729F4109286011092850108950E
:1008600081E090E090938601809385010895AF9296
:10087000BF92CF92DF92EF92FF920F931F93DF937D
:10088000CF93CDB7DEB7C85CD0400FB6F894DEBFCB
:100890000FBECDBF82E00E94440281E060E00E9472
:1008A0001C028FEF87BBDE011196E5EAF0E088ECD1
:1008B00001900D928150E1F723E030E03093A601E2
:1008C0002093A50184E090E090938E0180938D01A8
:1008D00030939401209393013093A4012093A301BA
:1008E00085E090E060E070E040E650E00E94E902C0
:1008F000FE01E55AFF4F4081518182E090E061E0C6
:1009000070E022E030E00E94F40280919301909127
:100910009401FC0123E0EE0FFF1F2A95E1F7880FF9
:10092000991FE80FF91F8091A3019091A401E80F8E
:10093000F91FEE0FFF1F8E010F5F1F4FE00FF11F1A
:10094000408151818CE090E061E070E022E030E095
:100950000E94F40282E090E00E9477008091A5015D
:100960009091A6018230910509F00FC141E050E05D
:10097000509372014093710180916F0190917001C9
:1009800080FD5FC060919301709194012091A3015B
:100990003091A401CB01FC01B3E0EE0FFF1FBA952B
:1009A000E1F7880F991FE80FF91FE20FF31FE41B0F
:1009B000F50BEE0FFF1FE00FF11F808191810C9767
:1009C000A1F4609391017093920130939001209370
:1009D0008F0180919301909194019093A201809353
:1009E000A101A9014150504066C0CB01FC01B3E018
:1009F000EE0FFF1FBA95E1F7880F991FE80FF91F57
:100A0000E20FF31F3297EE0FFF1FE00FF11F8081FF
:100A100091810C9711F00C94711760939101709370
:100A200092013093900120938F01809193019091D6
:100A300094019093A2018093A101A90142505040DA
:100A40003AC062E070E00E94F119019711F00C9435
:100A5000711760919301709194012091A3013091DD
:100A6000A401CB01FC0143E0EE0FFF1F4A95E1F723
:100A7000880F991FE80FF91FE20FF31F3196EE0F51
:100A8000FF1FE00FF11F80819181079709F051C08E
:100A900060939101709392013093900120938F01A4
:100AA00080919301909194019093A2018093A10170
:100AB000A9014F5F5F4F5093A8014093A701CB015D
:100AC000DB01E3E0AA0FBB1FEA95E1F7880F991F4E
:100AD000A80FB91FA20FB31FAA0FBB1FA00FB11FF2
:100AE000CB01FB0133E0EE0FFF1F3A95E1F7880FD2
:100AF000991FE80FF91FE40FF51FEE0FFF1FE00F1E
:100B0000F11F808191818D939C93CB019B0173E0B8
:100B1000220F331F7A95E1F7880F991F280F391F8D
:100B2000240F351F220F331F020F131FF8010C94DF
:100B30006F17CB01FC0143E0EE0FFF1F4A95E1F771
:100B4000880F991FE80FF91FE20FF31F3296EE0F7F
:100B5000FF1FE00FF11F80819181079711F00C9426
:100B600071176093910170939201309390012093DB
:100B70008F0180919301909194019093A2018093B1
:100B8000A101A9014E5F5F4F96CF8330910511F00F
:100B90000C94E51480918D0190918E01009709F0DD
:100BA0005CC381E090E09093740180937301809125
:100BB0006F019091700180FDA4C180916D009091B2
:100BC0006E0020919301309194016091A301709186
:100BD000A40100916F00109170008217930709F033
:100BE0005FC00617170709F4BBC09093920180936A
:100BF00091019093A2018093A10170939001609361
:100C00008F011093A8010093A70120916D003091EE
:100C10006E008091930190919401DC0153E0AA0F42
:100C2000BB1F5A95E1F7880F991FA80FB91FA60F90
:100C3000B71FAA0FBB1FAE014F5F5F4FA40FB51FB9
:100C4000C901FC01EE0FFF1FEE0FFF1FEE0FFF1F8C
:100C5000880F991FE80FF91FE00FF11FEE0FFF1F1C
:100C6000E40FF51F808191818D939C93C9019C01B4
:100C7000A3E0220F331FAA95E1F7880F991F280FD1
:100C8000391F200F311F220F331F420F531FFA014C
:100C9000118210827093700060936F000C94711732
:100CA0000617170709F05CC0309392012093910159
:100CB0009093A2018093A1011093900100938F0162
:100CC0001093A8010093A701609193017091940182
:100CD00020916D0030916E00CB01DC0153E0AA0F32
:100CE000BB1F5A95E1F7880F991FA80FB91FA00FD6
:100CF000B11FAA0FBB1FAE014F5F5F4FA40FB51FFF
:100D0000C901FC01EE0FFF1FEE0FFF1FEE0FFF1FCB
:100D1000880F991FE80FF91FE00FF11FEE0FFF1F5B
:100D2000E40FF51F808191818D939C93C9019C01F3
:100D3000A3E0220F331FAA95E1F7880F991F280F10
:100D4000391F200F311F220F331F420F531FFA018B
:100D50001182108260936D0070936E000C94711775
:100D600080917100909172006091A3017091A40133
:100D700000917300109174008217930709F060C00E
:100D80000617170711F40C947117309392012093F2
:100D900091013093A2012093A1017093900160937F
:100DA0008F011093A8010093A70120917100309149
:100DB00072008091930190919401DC0153E0AA0F9D
:100DC000BB1F5A95E1F7880F991FA80FB91FA60FEF
:100DD000B71FAA0FBB1FAE014F5F5F4FA40FB51F18
:100DE000C901FC01EE0FFF1FEE0FFF1FEE0FFF1FEB
:100DF000880F991FE80FF91FE00FF11FEE0FFF1F7B
:100E0000E40FF51F808191818D939C93C9019C0112
:100E1000A3E0220F331FAA95E1F7880F991F280F2F
:100E2000391F200F311F220F331F420F531FFA01AA
:100E30001182108270937400609373000C94711788
:100E40000617170711F00C94711730939201209335
:100E500091019093A2018093A101109390010093BE
:100E60008F011093A8010093A701609193017091E5
:100E700094012091710030917200CB01DC0153E0AC
:100E8000AA0FBB1F5A95E1F7880F991FA80FB91F2A
:100E9000A00FB11FAA0FBB1FAE014F5F5F4FA40F82
:100EA000B51FC901FC01EE0FFF1FEE0FFF1FEE0F74
:100EB000FF1F880F991FE80FF91FE00FF11FEE0FBA
:100EC000FF1FE40FF51F808191818D939C93C901D1
:100ED0009C01A3E0220F331FAA95E1F7880F991F09
:100EE000280F391F200F311F220F331F420F531FAE
:100EF000FA011182108260937100709372000C9459
:100F0000711762E070E00E94F119019711F00C94E2
:100F10007117809175009091760020919301309126
:100F200094016091A3017091A40100917700109148
:100F300078008217930709F05FC00617170709F4B6
:100F4000BBC090939201809391019093A2018093F2
:100F5000A1017093900160938F011093A8010093F9
:100F6000A7012091750030917600809193019091B6
:100F70009401DC0153E0AA0FBB1F5A95E1F7880FDB
:100F8000991FA80FB91FA60FB71FAA0FBB1FAE014D
:100F90004F5F5F4FA40FB51FC901FC01EE0FFF1F8C
:100FA000EE0FFF1FEE0FFF1F880F991FE80FF91FAD
:100FB000E00FF11FEE0FFF1FE40FF51F80819181FD
:100FC0008D939C93C9019C01A3E0220F331FAA9526
:100FD000E1F7880F991F280F391F200F311F220FAB
:100FE000331F420F531FFA01118210827093780051
:100FF000609377000C9471170617170709F05CC00F
:1010000030939201209391019093A2018093A101CA
:101010001093900100938F011093A8010093A701F2
:101020006091930170919401209175003091760048
:10103000CB01DC0153E0AA0FBB1F5A95E1F7880FE3
:10104000991FA80FB91FA00FB11FAA0FBB1FAE0198
:101050004F5F5F4FA40FB51FC901FC01EE0FFF1FCB
:10106000EE0FFF1FEE0FFF1F880F991FE80FF91FEC
:10107000E00FF11FEE0FFF1FE40FF51F808191813C
:101080008D939C93C9019C01A3E0220F331FAA9565
:10109000E1F7880F991F280F391F200F311F220FEA
:1010A000331F420F531FFA011182108260937500A3
:1010B000709376000C9471178091790090917A006A
:1010C0006091A3017091A40100917B0010917C00BC
:1010D0008217930709F060C00617170711F40C94E4
:1010E000711730939201209391013093A2012093C4
:1010F000A1017093900160938F011093A801009358
:10110000A7012091790030917A008091930190910C
:101110009401DC0153E0AA0FBB1F5A95E1F7880F39
:10112000991FA80FB91FA60FB71FAA0FBB1FAE01AB
:101130004F5F5F4FA40FB51FC901FC01EE0FFF1FEA
:10114000EE0FFF1FEE0FFF1F880F991FE80FF91F0B
:10115000E00FF11FEE0FFF1FE40FF51F808191815B
:101160008D939C93C9019C01A3E0220F331FAA9584
:10117000E1F7880F991F280F391F200F311F220F09
:10118000331F420F531FFA011182108270937C00AB
:1011900060937B000C9471170617170711F00C94DD
:1011A000711730939201209391019093A201809343
:1011B000A1011093900100938F011093A801009357
:1011C000A701609193017091940120917900309171
:1011D0007A00CB01DC0153E0AA0FBB1F5A95E1F75F
:1011E000880F991FA80FB91FA00FB11FAA0FBB1F0F
:1011F000AE014F5F5F4FA40FB51FC901FC01EE0F99
:10120000FF1FEE0FFF1FEE0FFF1F880F991FE80F44
:10121000F91FE00FF11FEE0FFF1FE40FF51F808194
:1012200091818D939C93C9019C01A3E0220F331FF0
:10123000AA95E1F7880F991F280F391F200F311F3A
:10124000220F331F420F531FFA0111821082609345
:10125000790070937A000C9471178130910509F030
:1012600004C281E090E090937601809375010E9422
:101270009B0380916F019091700180FDF7C02091D8
:101280009F013091A00180917F01909180012817EA
:10129000390709F071C00091A3011091A4011093C6
:1012A00092010093910160917F0070918000709392
:1012B000A2016093A1018091930190919401909378
:1012C000900180938F0180917D0090917E0090939A
:1012D000A8018093A701F0909301E09094012091E0
:1012E0007D0030917E008F2D9E2DDC0153E0AA0FF2
:1012F000BB1F5A95E1F7880F991FA80FB91FA00FC0
:10130000B11FAA0FBB1FAE014F5F5F4FA40FB51FE8
:10131000C901FC01EE0FFF1FEE0FFF1FEE0FFF1FB5
:10132000880F991FE80FF91FE60FF71FEE0FFF1F39
:10133000E40FF51F808191818D939C93C9019C01DD
:10134000F3E0220F331FFA95E1F7880F991F280F5A
:10135000391F260F371F220F331F420F531FFA0169
:1013600011821082F0927D00E0927E001093800046
:1013700000937F000C94711780918D0090918E00E6
:101380002817390711F00C9471170091A3011091DF
:10139000A4011093920100939101609183007091D8
:1013A00084007093A2016093A101809193019091B8
:1013B00094019093900180938F018091810090918E
:1013C00082009093A8018093A701F0909301E09090
:1013D000940120918100309182008F2D9E2DDC019F
:1013E00053E0AA0FBB1F5A95E1F7880F991FA80F6A
:1013F000B91FA00FB11FAA0FBB1FAE014F5F5F4FF8
:10140000A40FB51FC901FC01EE0FFF1FEE0FFF1F58
:10141000EE0FFF1F880F991FE80FF91FE60FF71F48
:10142000EE0FFF1FE40FF51F808191818D939C9338
:10143000C9019C01F3E0220F331FFA95E1F7880FF1
:10144000991F280F391F260F371F220F331F420FF6
:10145000531FFA0111821082F0928100E092820003
:1014600010938400009383000C94711762E070E085
:101470000E94F119019711F00C94711720919F01AE
:101480003091A00180918F0090919000281739072A
:1014900009F071C00091A3011091A4011093920171
:1014A0000093910160918700709188007093A20170
:1014B0006093A10180919301909194019093900188
:1014C00080938F0180918500909186009093A80170
:1014D0008093A701F0909301E09094012091850002
:1014E000309186008F2D9E2DDC0153E0AA0FBB1F8B
:1014F0005A95E1F7880F991FA80FB91FA00FB11FC8
:10150000AA0FBB1FAE014F5F5F4FA40FB51FC901EC
:10151000FC01EE0FFF1FEE0FFF1FEE0FFF1F880FE6
:10152000991FE80FF91FE60FF71FEE0FFF1FE40FDB
:10153000F51F808191818D939C93C9019C01F3E0FB
:10154000220F331FFA95E1F7880F991F280F391FD3
:10155000260F371F220F331F420F531FFA0111822C
:101560001082F0928500E09286001093880000932C
:1015700087000C9471178091810190918201281746
:10158000390711F00C9471170091A3011091A40177
:10159000109392010093910160918B0070918C00E7
:1015A0007093A2016093A1018091930190919401A5
:1015B0009093900180938F018091890090918A008F
:1015C0009093A8018093A701F0909301E09094017B
:1015D0002091890030918A008F2D9E2DDC0153E0EF
:1015E000AA0FBB1F5A95E1F7880F991FA80FB91FC3
:1015F000A00FB11FAA0FBB1FAE014F5F5F4FA40F1B
:10160000B51FC901FC01EE0FFF1FEE0FFF1FEE0F0C
:10161000FF1F880F991FE80FF91FE60FF71FEE0F46
:10162000FF1FE40FF51F808191818D939C93C90169
:101630009C01F3E0220F331FFA95E1F7880F991F01
:10164000280F391F260F371F220F331F420F531F3A
:10165000FA0111821082F0928900E0928A001093C0
:101660008C0000938B000C9471178230910509F067
:10167000BAC20E949B0380916F019091700180FD1E
:1016800056C120919F013091A001809183019091DA
:101690008401E0919301F091940140919100509167
:1016A00092002817390709F4D3C081E090E09093A5
:1016B0007801809377016091A3017091A40100915A
:1016C0009300109194004E175F0709F060C0061751
:1016D000170711F40C9471175093920140939101E4
:1016E0005093A2014093A1017093900160938F01E8
:1016F0001093A8010093A7012091910030919200CE
:101700008091930190919401DC0153E0AA0FBB1FDB
:101710005A95E1F7880F991FA80FB91FA60FB71F99
:10172000AA0FBB1FAE014F5F5F4FA40FB51FC901CA
:10173000FC01EE0FFF1FEE0FFF1FEE0FFF1F880FC4
:10174000991FE80FF91FE00FF11FEE0FFF1FE40FC5
:10175000F51F808191818D939C93C9019C01A3E029
:10176000220F331FAA95E1F7880F991F280F391F01
:10177000200F311F220F331F420F531FFA01118216
:10178000108270939400609393000C947117061765
:10179000170711F00C947117F0939201E0939101E7
:1017A0005093A2014093A1011093900100938F01E7
:1017B0001093A8010093A701609193017091940187
:1017C0002091910030919200CB01DC0153E0AA0FEF
:1017D000BB1F5A95E1F7880F991FA80FB91FA00FDB
:1017E000B11FAA0FBB1FAE014F5F5F4FA40FB51F04
:1017F000C901FC01EE0FFF1FEE0FFF1FEE0FFF1FD1
:10180000880F991FE80FF91FE00FF11FEE0FFF1F60
:10181000E40FF51F808191818D939C93C9019C01F8
:10182000A3E0220F331FAA95E1F7880F991F280F15
:10183000391F200F311F220F331F420F531FFA0190
:101840001182108260939100709392000C94711732
:1018500081E090E090937A01809379010091A30157
:101860001091A40110939201009391016091930053
:10187000709194007093A2016093A101F093900184
:10188000E0938F015093A8014093A701F09093013A
:10189000E090940120919100309192008F2D9E2D27
:1018A000DC0153E0AA0FBB1F5A95E1F7880F991F7F
:1018B000A80FB91FA00FB11FAA0FBB1FAE014F5F2A
:1018C0005F4FA40FB51FC901FC01EE0FFF1FEE0F04
:1018D000FF1FEE0FFF1F880F991FE80FF91FE60F7C
:1018E000F71FEE0FFF1FE40FF51F808191818D938D
:1018F0009C93C9019C01F3E0220F331FFA95E1F795
:10190000880F991F280F391F260F371F220F331FEB
:10191000420F531FFA0111821082F0929100E0925F
:10192000920010939400009393000C94711762E05E
:1019300070E00E94F119AC018130910511F00C9416
:10194000711720919F013091A00180919900909191
:101950009A00E0919301F0919401A0919500B091CB
:1019600096002817390709F4D1C0509378014093A5
:1019700077016091A3017091A401009197001091EB
:101980009800AE17BF0709F060C00617170711F4DB
:101990000C947117B0939201A0939101B093A2019E
:1019A000A093A1017093900160938F011093A801FF
:1019B0000093A701209195003091960080919301AA
:1019C00090919401DC0153E0AA0FBB1F5A95E1F7F7
:1019D000880F991FA80FB91FA60FB71FAA0FBB1F0B
:1019E000AE014F5F5F4FA40FB51FC901FC01EE0FA1
:1019F000FF1FEE0FFF1FEE0FFF1F880F991FE80F4D
:101A0000F91FE00FF11FEE0FFF1FE40FF51F80819C
:101A100091818D939C93C9019C01A3E0220F331FF8
:101A2000AA95E1F7880F991F280F391F200F311F42
:101A3000220F331F420F531FFA011182108270933D
:101A40009800609397000C9471170617170711F010
:101A50000C947117F0939201E0939101B093A2015D
:101A6000A093A1011093900100938F011093A801FE
:101A70000093A701609193017091940120919500CA
:101A800030919600CB01DC0153E0AA0FBB1F5A95A1
:101A9000E1F7880F991FA80FB91FA00FB11FAA0F58
:101AA000BB1FAE014F5F5F4FA40FB51FC901FC0103
:101AB000EE0FFF1FEE0FFF1FEE0FFF1F880F991F86
:101AC000E80FF91FE00FF11FEE0FFF1FE40FF51FE6
:101AD000808191818D939C93C9019C01A3E0220F89
:101AE000331FAA95E1F7880F991F280F391F200F80
:101AF000311F220F331F420F531FFA011182108230
:101B000060939500709396000C94711750937A012E
:101B1000409379010091A3011091A40110939201C7
:101B20000093910160919700709198007093A201C9
:101B30006093A101F0939001E0938F01B093A8010D
:101B4000A093A701F0909301E0909401209195005B
:101B5000309196008F2D9E2DDC0153E0AA0FBB1F04
:101B60005A95E1F7880F991FA80FB91FA00FB11F51
:101B7000AA0FBB1FAE014F5F5F4FA40FB51FC90176
:101B8000FC01EE0FFF1FEE0FFF1FEE0FFF1F880F70
:101B9000991FE80FF91FE60FF71FEE0FFF1FE40F65
:101BA000F51F808191818D939C93C9019C01F3E085
:101BB000220F331FFA95E1F7880F991F280F391F5D
:101BC000260F371F220F331F420F531FFA011182B6
:101BD0001082F0929500E092960010939800009386
:101BE00097000C9471178330910509F0DDC2809144
:101BF0006F019091700180FD6BC120919B0030912D
:101C00009C0040919301509194016091A3017091C7
:101C1000A40100919D0010919E002417350709F042
:101C200064C00617170709F4C4C081E090E09093E0
:101C30007801809377013093920120939101309342
:101C4000A2012093A1017093900160938F011093E2
:101C5000A8010093A70120919B0030919C008091E6
:101C6000930190919401DC0153E0AA0FBB1F5A9598
:101C7000E1F7880F991FA80FB91FA60FB71FAA0F6A
:101C8000BB1FAE014F5F5F4FA40FB51FC901FC0121
:101C9000EE0FFF1FEE0FFF1FEE0FFF1F880F991FA4
:101CA000E80FF91FE00FF11FEE0FFF1FE40FF51F04
:101CB000808191818D939C93C9019C01A3E0220FA7
:101CC000331FAA95E1F7880F991F280F391F200F9E
:101CD000311F220F331F420F531FFA01118210824E
:101CE00070939E0060939D0064C00617170709F06B
:101CF00060C081E090E090937801809377015093E9
:101D00009201409391013093A2012093A10110937D
:101D1000900100938F011093A8010093A701609197
:101D200093017091940120919B0030919C00CB0114
:101D3000DC0153E0AA0FBB1F5A95E1F7880F991FEA
:101D4000A80FB91FA00FB11FAA0FBB1FAE014F5F95
:101D50005F4FA40FB51FC901FC01EE0FFF1FEE0F6F
:101D6000FF1FEE0FFF1F880F991FE80FF91FE00FED
:101D7000F11FEE0FFF1FE40FF51F808191818D93FE
:101D80009C93C9019C01A3E0220F331FAA95E1F7A0
:101D9000880F991F280F391F200F311F220F331F63
:101DA000420F531FFA011182108260939B007093BF
:101DB0009C000E949B0320919F013091A001809183
:101DC000A3009091A4002817390711F00C94711703
:101DD00081E090E090937A018093790120919B00BB
:101DE00030919C00809193019091940128173907BC
:101DF00011F40C947117E090A301F090A4010091EC
:101E00009D0010919E000E151F0511F40C94711782
:101E1000F0929201E09291011093A2010093A1012E
:101E20009093900180938F013093A8012093A70194
:101E3000609193017091940120919B0030919C00DE
:101E4000CB01DC0153E0AA0FBB1F5A95E1F7880FC5
:101E5000991FA80FB91FAE0DBF1DAA0FBB1FAE0162
:101E60004F5F5F4FA40FB51FC901FC01EE0FFF1FAD
:101E7000EE0FFF1FEE0FFF1F880F991FE80FF91FCE
:101E8000E00FF11FEE0FFF1FE40FF51F808191811E
:101E90008D939C93C9019C01A3E0220F331FAA9547
:101EA000E1F7880F991F280F391F200F311F220FCC
:101EB000331F420F531FFA011182108260939B005F
:101EC00070939C00F0929E00E0929D000C9471171C
:101ED00062E070E00E94F1198130910511F00C94DC
:101EE000711720919F003091A00040919301509173
:101EF00094016091A3017091A4010091A10010913F
:101F0000A2002417350709F062C00617170709F465
:101F1000C0C0909378018093770130939201209311
:101F200091013093A2012093A101709390016093DD
:101F30008F011093A8010093A70120919F00309179
:101F4000A0008091930190919401DC0153E0AA0FCD
:101F5000BB1F5A95E1F7880F991FA80FB91FA60F4D
:101F6000B71FAA0FBB1FAE014F5F5F4FA40FB51F76
:101F7000C901FC01EE0FFF1FEE0FFF1FEE0FFF1F49
:101F8000880F991FE80FF91FE00FF11FEE0FFF1FD9
:101F9000E40FF51F808191818D939C93C9019C0171
:101FA000A3E0220F331FAA95E1F7880F991F280F8E
:101FB000391F200F311F220F331F420F531FFA0109
:101FC000118210827093A2006093A10062C0061774
:101FD000170709F05EC090937801809377015093C2
:101FE0009201409391013093A2012093A10110939B
:101FF000900100938F011093A8010093A7016091B5
:1020000093017091940120919F003091A000CB0129
:10201000DC0153E0AA0FBB1F5A95E1F7880F991F07
:10202000A80FB91FA00FB11FAA0FBB1FAE014F5FB2
:102030005F4FA40FB51FC901FC01EE0FFF1FEE0F8C
:10204000FF1FEE0FFF1F880F991FE80FF91FE00F0A
:10205000F11FEE0FFF1FE40FF51F808191818D931B
:102060009C93C9019C01A3E0220F331FAA95E1F7BD
:10207000880F991F280F391F200F311F220F331F80
:10208000420F531FFA011182108260939F007093D8
:10209000A0000E949B0320919F013091A00180919C
:1020A0008501909186012817390709F01AC781E048
:1020B00090E090937A018093790120919F00309174
:1020C000A00080919301909194012817390709F499
:1020D00008C7E090A301F090A4010091A100109125
:1020E000A2000E151F0509F4FCC6F0929201E092C1
:1020F00091011093A2010093A1019093900180930C
:102100008F013093A8012093A701609193017091F2
:10211000940120919F003091A000CB01DC0153E09D
:10212000AA0FBB1F5A95E1F7880F991FA80FB91F77
:10213000AE0DBF1DAA0FBB1FAE014F5F5F4FA40FB7
:10214000B51FC901FC01EE0FFF1FEE0FFF1FEE0FC1
:10215000FF1F880F991FE80FF91FE00FF11FEE0F07
:10216000FF1FE40FF51F808191818D939C93C9011E
:102170009C01F3E0220F331FFA95E1F7880F991FB6
:10218000280F391F200F311F220F331F420F531FFB
:10219000FA011182108260939F007093A000F09268
:1021A000A200E092A1009DC6049709F09AC6A1E0A2
:1021B000AA2EB12CB0927601A092750180916F0188
:1021C0009091700180FDB9C160919301709194016B
:1021D0009B01225030404091A3015091A4016A011B
:1021E0000894C108D1088901000F111FC901E3E05B
:1021F000880F991FEA95E1F7080F191FF801EC0DF8
:10220000FD1DEE0FFF1FDE011196EA0FFB1F8081FF
:1022100091818531910509F461C08734910509F4F4
:102220005DC07A010894E11CF11CF801EE0DFF1D60
:10223000EE0FFF1FEA0FFB1F808191818531910511
:1022400069F570939201609391013093A2012093FC
:10225000A1015093900140938F01F092A801E09268
:10226000A701FB0123E0EE0FFF1F2A95E1F7660FA0
:10227000771FE60FF71FE40FF51FEE0FFF1FEA0FA2
:10228000FB1F91838083400F511F4F5F5F4F440FAF
:10229000551FA40FB51F1D921C9292C38734910540
:1022A00081F29B012E5F3F4F8901000F111FC90171
:1022B000E3E0880F991FEA95E1F7080F191FF8016D
:1022C000EC0DFD1DEE0FFF1FEA0FFB1F80819181BA
:1022D0008531910519F08734910539F57093920194
:1022E000609391013093A2012093A101509390013A
:1022F00040938F01D092A801C092A701FB0123E077
:10230000EE0FFF1F2A95E1F7660F771FE60FF71F05
:10231000E40FF51FEE0FFF1FEA0FFB1F9183808371
:10232000400F511F4A195B09B2CFF801EE0DFF1D96
:10233000EE0FFF1FEA0FFB1F808191818531910510
:1023400009F47FCF8734910509F47BCF7B01089492
:10235000E108F108FA013297C701880F991F970128
:1023600003E0220F331F0A95E1F7820F931F8E0FB0
:102370009F1F880F991FA80FB91F0D90BC91A02D0A
:10238000A531B10509F047C07093920160939101A6
:102390008091930190919401AC0141505040509331
:1023A000A2014093A1012091A3013091A401309397
:1023B000900120938F01225030403093A801209348
:1023C000A7012E5F3F4FFC01B3E0EE0FFF1FBA9550
:1023D000E1F7880F991FE80FF91FE20FF31FEE0FC7
:1023E000FF1FDE011196EA0FFB1F85E190E091834C
:1023F0008083CA0163E0880F991F6A95E1F7440F53
:10240000551F840F951F820F931F0297880F991FE6
:10241000A80FB91F40CF8E010F5F1F4FA734B10522
:1024200061F4709392016093910120919301309136
:102430009401A90141505040FDC1CB0101969C017E
:10244000A3E0220F331FAA95E1F7880F991F280FE9
:10245000391FE20FF31FEE0FFF1FE00FF11FA081E6
:10246000B181A531B10519F0A734B10529F47093F4
:10247000920160939101D7C1DA011296F70143E00E
:10248000EE0FFF1F4A95E1F7EE0CFF1CEE0DFF1D4E
:10249000EA0FFB1FEE0FFF1FE00FF11FE080F1803E
:1024A000F5E1EF16F10421F087E4E816F10429F4D0
:1024B000709392016093910106C2A20FB31FAA0FFD
:1024C000BB1FA00FB11F0D90BC91A02DA531B10570
:1024D00021F0A734B10509F073C2709392016093A3
:1024E00091012091930130919401A9014F5F5F4FB9
:1024F0005093A2014093A1018091A3019091A40166
:102500009093900180938F0102969093A8018093FD
:10251000A7010297F90173E0EE0FFF1F7A95E1F72B
:10252000220F331FE20FF31FE80FF91FEE0FFF1FFB
:10253000E00FF11FB183A08330C262E070E00E941F
:10254000F1195C018130910509F03AC24091930183
:1025500050919401BA01625070402091A3013091D2
:10256000A40169010894C108D1088B01000F111F53
:10257000CB01E3E0880F991FEA95E1F7080F191FD7
:10258000F801EC0DFD1DEE0FFF1FDE011196EA0FA5
:10259000FB1F808191818C319105A9F18E349105C9
:1025A00091F179010894E11CF11CF801EE0DFF1D79
:1025B000EE0FFF1FEA0FFB1F808191818C31910587
:1025C00009F454C08E34910509F450C0BA016E5F0D
:1025D0007F4F8B01000F111FCB01E3E0880F991F84
:1025E000EA95E1F7080F191FF801EC0DFD1DEE0F3C
:1025F000FF1FEA0FFB1F808191818C31910519F03B
:102600008E34910539F55093920140939101709366
:10261000A2016093A1013093900120938F01D09289
:10262000A801C092A701FA0173E0EE0FFF1F7A958F
:10263000E1F7440F551FE40FF51FE20FF31FEE0FF4
:10264000FF1FEA0FFB1F91838083200F311F2A1980
:102650003B0932C0F801EE0DFF1DEE0FFF1FEA0F20
:10266000FB1F808191818C31910559F55093920126
:10267000409391017093A2016093A1013093900166
:1026800020938F01F092A801E092A701FA0173E074
:10269000EE0FFF1F7A95E1F7440F551FE40FF51F6A
:1026A000E20FF31FEE0FFF1FEA0FFB1F91838083E2
:1026B000200F311F2F5F3F4F220F331FA20FB31F79
:1026C000EACD8D018E34910509F041C050939201FD
:1026D000409391018091930190919401AC014E5FE0
:1026E0005F4F5093A2014093A1012091A30130912B
:1026F000A4013093900120938F012F5F3F4F3093BF
:10270000A8012093A70121503040FC0173E0EE0F97
:10271000FF1F7A95E1F7880F991FE80FF91FE20F65
:10272000F31FEE0FFF1FEA0FFB1F8EE490E0918373
:102730008083FA01B3E0EE0FFF1FBA95E1F7440F73
:10274000551FE40FF51FE20FF31F319633C1CA0185
:102750000197D90112977C0173E0EE0CFF1C7A956A
:10276000E1F7880F991FE80EF91EF701EA0FFB1F2A
:10277000EE0FFF1FE00FF11F608171816C31710559
:1027800019F06E34710581F55093920140939101D7
:102790002091930130919401A901415050405093F0
:1027A000A2014093A1018091A3019091A401909373
:1027B000900180938F0102979093A8018093A701C5
:1027C0000296F901A3E0EE0FFF1FAA95E1F7220F91
:1027D000331FE20FF31FE80FF91FEE0FFF1FE00F8B
:1027E000F11F718360834AC0CA010196BC01E3E016
:1027F000660F771FEA95E1F7880F991F680F791F19
:10280000A60FB71FAA0FBB1FA00FB11F0D90BC9141
:10281000A02DAC31B10519F0AE34B105E9F55093F6
:102820009201409391012091930130919401A9016B
:102830004F5F5F4F5093A2014093A1018091A3018C
:102840009091A4019093900180938F0102979093AF
:10285000A8018093A7010296F90163E0EE0FFF1F24
:102860006A95E1F7220F331FE20FF31FE80FF91FFC
:10287000EE0FFF1FE00FF11FB183A083FA0133E0D9
:10288000EE0FFF1F3A95E1F7440F551FE40FF51FB8
:10289000E80FF91F32978EC0D9011296F701EA0F9F
:1028A000FB1FEE0FFF1FE00FF11FE080F180FCE146
:1028B000EF16F10421F08EE4E816F10481F550934F
:1028C0009201409391012091930130919401A901CB
:1028D000415050405093A2014093A1018091A30127
:1028E0009091A4019093900180938F010296909310
:1028F000A8018093A7010297F90173E0EE0FFF1F73
:102900007A95E1F7220F331FE20FF31FE80FF91F4B
:10291000EE0FFF1FE00FF11FF182E0823EC0A60F15
:10292000B71FAA0FBB1FA00FB11F6D917C916C3117
:10293000710521F06E34710509F042C05093920187
:10294000409391012091930130919401A9014F5F2F
:102950005F4F5093A2014093A1018091A3019091F8
:10296000A4019093900180938F0102969093A80107
:102970008093A7010297F901B3E0EE0FFF1FBA950C
:10298000E1F7220F331FE20FF31FE80FF91FEE0FDD
:10299000FF1FE00FF11F71836083FA0123E0EE0F48
:1029A000FF1F2A95E1F7440F551FE40FF51FE80FAD
:1029B000F91F3296EE0FFF1FE00FF11F11821082F8
:1029C00081E060E00E941C028CC28530910509F014
:1029D00076C080918D0190918E01892B09F067C09E
:1029E00081E090E090937401809373018091930152
:1029F0009091940190939201809391012091A30171
:102A00003091A4013093900120938F0180918B012C
:102A100090918C019093A2018093A1014091950126
:102A2000509196015093A8014093A70160918B01AA
:102A300070918C018091930190919401DC01E3E00D
:102A4000AA0FBB1FEA95E1F7880F991FA80FB91FBE
:102A5000A20FB31FAA0FBB1FA00FB11FCB01FC0118
:102A600033E0EE0FFF1F3A95E1F7880F991FE80F4B
:102A7000F91FE40FF51FEE0FFF1FE00FF11F80811C
:102A800091818D939C93CB019C01B3E0220F331F66
:102A9000BA95E1F7880F991F280F391F240F351FAA
:102AA000220F331F020F131FF80111821082809131
:102AB0008D0190918E01049709F013C2A6C1843054
:102AC000910509F0F5C020918D0130918E012115FD
:102AD0003105E9F480916F019091700180FD08C08B
:102AE00081E090E090937E0180937D010C94D1056C
:102AF00062E070E00E94F1198130910511F00C94B0
:102B0000D10590937C0180937B010C94D1052130F9
:102B10003105D9F480916F019091700180FD06C05C
:102B200030937E0120937D010C94310962E070E0C6
:102B30000E94F1198130910511F00C9431099093A4
:102B40007C0180937B010C94310922303105F1F432
:102B500080916F019091700180FD08C081E090E04C
:102B600090937E0180937D010C94390B62E070E0BC
:102B70000E94F119019711F00C94390B81E090E05B
:102B800090937C0180937B010C94390B23303105A9
:102B9000D1F480916F019091700180FD07C081E0B8
:102BA00090E090937E0180937D0121C862E070E007
:102BB0000E94F1198130910509F019C890937C01A8
:102BC00080937B0114C880916F0190917001243033
:102BD0003105B1F480FD07C081E090E090937E0163
:102BE00080937D01E4CA62E070E00E94F1198130B7
:102BF000910509F0DCCA90937C0180937B01D7CAD0
:102C000021E030E0309376012093750180FD20C0F3
:102C100030937E0120937D018091930190919401E6
:102C200090939201809391012091A3013091A4018E
:102C30003093900120938F0180918D0190918E01AE
:102C40009093A2018093A101B9016150704027C007
:102C500062E070E00E94F1198130910509F041C1F4
:102C600090937C0180937B018091930190919401DA
:102C700090939201809391012091A3013091A4013E
:102C80003093900120938F0180918D0190918E015E
:102C90009093A2018093A101B9016F5F7F4F709360
:102CA000A8016093A70110918D0100918E01D7C0FA
:102CB000069709F016C180918D0190918E01892BA4
:102CC00009F084C080916F019091700180FD07C070
:102CD00081E090E090937E0180937D010BC062E0E3
:102CE00070E00E94F1198130910521F490937C01EC
:102CF00080937B0181E090E0909374018093730155
:102D0000809193019091940190939201809391010D
:102D10002091A3013091A4013093900120938F0161
:102D200080918B0190918C019093A2018093A101DD
:102D300060919501709196017093A8016093A7012D
:102D400010918B0100918C018091930190919401DD
:102D5000DC01E3E0AA0FBB1FEA95E1F7880F991F9A
:102D6000A80FB91FA20FB31FAA0FBB1FAE014F5F61
:102D70005F4FA40FB51F812F902FFC0133E0EE0FA2
:102D8000FF1F3A95E1F7880F991FE80FF91FE60F2B
:102D9000F71FEE0FFF1FE40FF51F808191818D93C8
:102DA0009C93812F902F9C01B3E0220F331FBA9583
:102DB000E1F7880F991F280F391F260F371F220FA1
:102DC000331F420F531FFA011182108280918D012F
:102DD00090918E01049709F084C080916F019091C9
:102DE000700180FD07C081E090E090937E018093A8
:102DF0007D010BC062E070E00E94F1198130910505
:102E000021F490937C0180937B0181E090E090938A
:102E10007601809375018091930190919401909334
:102E20009201809391012091A3013091A4013093EC
:102E3000900120938F0180918B0190918C01909350
:102E4000A2018093A1016091950170919601709308
:102E5000A8016093A70110918B0100918C018091D2
:102E6000930190919401DC01E3E0AA0FBB1FEA9566
:102E7000E1F7880F991FA80FB91FA20FB31FAA0F60
:102E8000BB1FAE014F5F5F4FA40FB51F812F902F67
:102E9000FC0133E0EE0FFF1F3A95E1F7880F991F11
:102EA000E80FF91FE60FF71FEE0FFF1FE40FF51FE6
:102EB000808191818D939C93812F902F9C0103E0C1
:102EC000220F331F0A95E1F7880F991F280F391F2A
:102ED000260F371F220F331F420F531FFA01118293
:102EE000108281E060E00E941C0285E090E060E0DA
:102EF00070E047E650E00E94E902FE01E55AFF4F0C
:102F00004081518182E090E061E070E022E030E0B9
:102F10000E94F4028091930190919401FC01A3E03E
:102F2000EE0FFF1FAA95E1F7880F991FE80FF91F11
:102F30008091A3019091A401E80FF91FEE0FFF1FEC
:102F4000EC0FFD1F418152818CE090E061E070E068
:102F500022E030E00E94F40282E090E00E947700DC
:102F600081E060E00E941C024091A1015091A20109
:102F700082E090E060E070E021E030E00E94F40246
:102F80004091A7015091A8018CE090E060E070E0D2
:102F900021E030E00E94F4024091910150919201B1
:102FA00082E090E061E070E021E030E00E94F40215
:102FB00040918F01509190018CE090E061E070E0D1
:102FC00021E030E00E94F402C853DF4F0FB6F894BE
:102FD000DEBF0FBECDBFCF91DF911F910F91FF904C
:102FE000EF90DF90CF90BF90AF90089580E090E099
:102FF0000E94181A8093870181E090E00E94181ABD
:103000008093880182E090E00E94181A80938901E1
:1030100083E090E00E94181A80938A010895CF936C
:10302000DF9340E050E0FA01E956FE4F9081DA016B
:10303000A957BE4F292F30E0FA01E556FE4F808197
:10304000281B310937FF03C0309521953F4F822F50
:103050008695890F8C934F5F5F4F4430510519F768
:10306000C0E0D0E0FE01E957FE4FCE0160810E9432
:10307000201A2196C430D105A9F7DF91CF91089588
:10308000D4D008F481E008950CD00AC102D140F0F8
:10309000F9D030F021F45F3F19F0EBC0511134C189
:1030A000EEC00FD198F39923C9F35523B1F3951BC3
:1030B000550BBB27AA2762177307840738F09F5F59
:1030C0005F4F220F331F441FAA1FA9F333D00E2EC8
:1030D0003AF0E0E830D091505040E695001CCAF735
:1030E00029D0FE2F27D0660F771F881FBB1F2617FA
:1030F00037074807AB07B0E809F0BB0B802DBF01CD
:10310000FF2793585F4F2AF09E3F510568F0B1C0EA
:10311000FBC05F3FECF3983EDCF3869577956795AF
:10312000B795F7959F5FC9F7880F911D969587957D
:1031300097F90895E1E0660F771F881FBB1F62179C
:1031400073078407BA0720F0621B730B840BBA0B5A
:10315000EE1F88F7E0950895BCD088F09F5790F057
:10316000B92F9927B751A0F0D1F0660F771F881FAC
:10317000991F1AF0BA95C9F712C0B13081F0C3D0C7
:10318000B1E00895C0C0672F782F8827B85F39F065
:10319000B93FCCF3869577956795B395D9F73EF40B
:1031A00090958095709561957F4F8F4F9F4F0895B3
:1031B000E89409C097FB3EF49095809570956195D1
:1031C0007F4F8F4F9F4F9923A9F0F92F96E9BB2787
:1031D0009395F695879577956795B795F111F8CF03
:1031E000FAF4BB0F11F460FF1BC06F5F7F4F8F4F6E
:1031F0009F4F16C0882311F096E911C0772321F064
:103200009EE8872F762F05C0662371F096E8862FFB
:1032100070E060E02AF09A95660F771F881FDAF752
:10322000880F9695879597F90895990F0008550F7F
:10323000AA0BE0E8FEEF16161706E807F907C0F03C
:1032400012161306E407F50798F0621B730B840B44
:10325000950B39F40A2661F0232B242B252B21F41E
:1032600008950A2609F4A140A6958FEF811D811DBE
:10327000089597F99F6780E870E060E008959FEFF8
:1032800080EC089500240A941616170618060906FD
:10329000089500240A9412161306140605060895CC
:1032A000092E0394000C11F4882352F0BB0F40F454
:1032B000BF2B11F460FF04C06F5F7F4F8F4F9F4F94
:1032C000089557FD9058440F551F59F05F3F71F016
:1032D0004795880F97FB991F61F09F3F79F087957D
:1032E0000895121613061406551FF2CF4695F1DF06
:1032F00008C0161617061806991FF1CF8695710596
:10330000610508940895E894BB2766277727CB01C9
:1033100097F908958ADF08F48FEF08950BD0C0CF96
:10332000B1DF28F0B6DF18F0952309F0A2CFA7CFC0
:103330001124EACFC6DFA0F3959FD1F3950F50E09B
:10334000551F629FF001729FBB27F00DB11D639F57
:10335000AA27F00DB11DAA1F649F6627B00DA11DFD
:10336000661F829F2227B00DA11D621F739FB00DA3
:10337000A11D621F839FA00D611D221F749F332713
:10338000A00D611D231F849F600D211D822F762FAC
:103390006A2F11249F5750408AF0E1F088234AF0A9
:1033A000EE0FFF1FBB1F661F771F881F91505040F5
:1033B000A9F79E3F510570F05CCFA6CF5F3FECF3BD
:1033C000983EDCF3869577956795B795F795E795E1
:1033D0009F5FC1F7FE2B880F911D9695879597F9F2
:1033E000089597FB092E07260AD077FD04D00CD04C
:1033F00006D000201AF4709561957F4F0895F6F776
:10340000909581959F4F0895AA1BBB1B51E107C062
:10341000AA1FBB1FA617B70710F0A61BB70B881F64
:10342000991F5A95A9F780959095BC01CD010895F3
:10343000E199FECF9FBB8EBBE09A99278DB308958B
:10344000262FE199FECF9FBB8EBB2DBB0FB6F89404
:0E345000E29AE19A0FBE01960895F894FFCF1C
:10345E004245464F52450041465445520001000137
:10346E000008000100010008000800080003000128
:10347E00000600010003000800060008000100011C
:10348E000005000100050008000100040001000411
:10349E000008000100000000000000000000000015
:1034AE0000000000000000000000000B000C0000F7
:1034BE0000000000000000070012000000000015D0
:1034CE00000C00000000000000000007001C0000BF
:1034DE000000001F000C00000000000000000007AC
:1034EE000026000000000029000C00000000000073
:1034FE00000000070030000000000033000C000048
:10350E000000000000000007003A00000000003D2F
:10351E00000C000000000000000000070044000046
:10352E0000000047000C0000000000000000000733
:10353E00004E000000000051000C000000000000D2
:10354E00000000070058000000000000000000000E
:0E355E0000000000000000000000000000005F
:00000001FF
